:020000040000FA
:030000000200D526
:0300330002185858
:03004B00020CC0E4
:03006B000218F088
:10008300020E0900000080FBE479127807B8000231
:100093008004F709D8FCE490F100786579048002C4
:1000A300F0A3D8FCD9FA7A647BF49000E478587909
:1000B300038015E493A3AD82AE838A828B83F0A37E
:1000C300AA82AB838D828E83D8E9D9E712120312F9
:1000D300008675D0007581BF7510007511F102009F
:1000E3008B00000000000000000000000000000082
:1000F30000000000000000000000000000000000FD
:1001030000000000000000000000000000000000EC
:1001130000637C777BF26B6FC53001672BFED7AB37
:1001230076CA82C97DFA5947F0ADD4A2AF9CA472B6
:10013300C0B7FD9326363FF7CC34A5E5F171D8312E
:100143001504C723C31896059A071280E2EB27B25A
:100153007509832C1A1B6E5AA0523BD6B329E32F81
:100163008453D100ED20FCB15B6ACBBE394A4C58B5
:10017300CFD0EFAAFB434D338545F9027F503C9F17
:10018300A851A3408F929D38F5BCB6DA2110FFF336
:10019300D2CD0C13EC5F974417C4A77E3D645D1961
:1001A3007360814FDC222A908846EEB814DE5E0B22
:1001B300DBE0323A0A4906245CC2D3AC629195E48F
:1001C30079E7C8376D8DD54EA96C56F4EA657AAEDA
:1001D30008BA78252E1CA6B4C6E8DD741F4BBD8B68
:1001E3008A703EB5664803F60E613557B986C11D60
:1001F3009EE1F8981169D98E949B1E87E9CE552804
:10020300DF8CA1890DBFE6426841992D0FB054BB25
:10021300168D01020408102040801B366CD8AB4DAC
:100223009A2F5EBC63C697356AD4B37DFAEFC59146
:100233003972E4D3BD61C29F254A943366CC831DD2
:100243003A74E8CB8D01020408102040801B366C01
:10025300D8AB4D9A2F5EBC63C697356AD4B37DFA8B
:10026300EFC5913972E4D3BD61C29F254A943366C9
:10027300CC831D3A74E8CB8D010204081020408022
:100283001B366CD8AB4D9A2F5EBC63C697356AD4C8
:10029300B37DFAEFC5913972E4D3BD61C29F254A9C
:1002A300943366CC831D3A74E8CB8D0102040810A5
:1002B3002040801B366CD8AB4D9A2F5EBC63C6972B
:1002C300356AD4B37DFAEFC5913972E4D3BD61C207
:1002D3009F254A943366CC831D3A74E8CB8D010283
:1002E3000408102040801B366CD8AB4D9A2F5EBC9F
:1002F30063C697356AD4B37DFAEFC5913972E4D3F7
:10030300BD61C29F254A943366CC831D3A74E8CB02
:10031300FFFFFFFF1432506EFF0000003B03DE03BC
:10032300DE03DE03DE03E603010000000400000039
:100333002C000000009600001201000202000020C1
:100343005104A61609000102030109024300020138
:1003530000801909040000010202010005240010B5
:1003630001042402020524060001052401000107FB
:1003730005820340004009040100020A000000074F
:10038300058402400001070504024000010403093B
:1003930004240354006500780061007300200049C1
:1003A300006E0073007400720075006D0065006ECE
:1003B30000740073001E0343004300310031003119
:1003C3000031002000550053004200200043004448
:1003D3000043000803300030003100560300007969
:1003E300030000C3E09608A3E09608A3E09608A3E1
:1003F300E09622C008C3E096F50808A3E0964208F9
:1004030008A3E096420808A3E09645087001D3D0FC
:100413000822BB0102E722C082C08389828A83BB90
:100423000003E08002E493D083D08222BB000EC09D
:1004330082C0838A838982F0D083D08222BB010168
:10044300F7226016080808C6C313C618C613C618D1
:10045300C613C618C613C6D5E0EA22E026F608A3DB
:10046300E036F608A3E036F608A3E036F622E026E7
:10047300F008A3E036F008A3E036F008A3E036F076
:1004830022E0F608A3E0F608A3E0F608A3E0F622CC
:10049300E6F008A3E6F008A3E6F008A3E6F022E0FE
:1004A300FAA3E0FBA3E0FCA3E0FD22CAC0E0E6F070
:1004B300A308DAFAD0E0FA22CAC0E0E0A3C582CCEE
:1004C300C582C583CDC583F0A3C582CCC582C58350
:1004D300CDC583DAE6D0E0CA22C3E498F8E499F9FB
:1004E30012051D8026C3E49AFAE49BFBE920E7E9A1
:1004F30012051DE498F8E499F922C3E498F8E49905
:10050300F912051DE498F8E499F9C3E49AFAE49B17
:10051300FB22EB20E7CFE920E7E0B90010BB00089E
:10052300E88AF084F8AAF022E4FBC8FA22EB7022EE
:100533007B10C833C8C933C9335007C39AC3DBF22E
:1005430080069A50012ADBEAC833F4C8C933F4C9D8
:10055300FA2275F008E4C833C8C933C933C99AC944
:100563009B5004C92AC93BD5F0ECFBC833F4C8E45B
:10057300C9FA22600C08C6C313C618C613C6D5E051
:10058300F422700422600D18C6C333C608C633C6EE
:10059300D5E0F41822251010AF08F510400C151102
:1005A3008008F51040021511D2AF2200C0D02510EB
:1005B30010AF08F510500C05118008F51050020516
:1005C30011D2AFD0D0222510F58210AF08F510401C
:1005D3000C15118008F51040021511D2AF85118357
:1005E300222510F582E43511F583222510F8E43530
:1005F30011F9222510FCE43511FD22E4732510C501
:1006030082C0E0E51134FFC583C0E0E510C39582E5
:1006130024F910AF08858311858210800885831122
:10062300858210D2AFCEF0A3E520F0A37808E608C8
:10063300F0A3DEFAEFF0A3E58124FBF8E608F0A3CC
:10064300E608F0A30808E608F0A3E608F0A315817E
:100653001581D0E0FED0E0F815811581E8C0E0EE09
:10066300C0E022851183851082E0A3FEE0A3F5207C
:100673007808E0A3F608DFFAE0A3FFE0A3C0E0E018
:10068300A3C0E0E0A3C0E0E0A3C0E010AF08858210
:10069300108583118008858210858311D2AFD083A2
:1006A300D08222C0D02510C582C0E0E51134FFC539
:1006B30083C0E0E510C3958224F310AF088583114E
:1006C3008582108008858311858210D2AFC8F0A37C
:1006D300E9F0A3EAF0A3EBF0A37908E709F0A3D8C4
:1006E300FAECF0A3EDF0A3EEF0A3EFF0A3D0E0F06B
:1006F300A3D0E0F0A3D0E0F0A3E520F0A3E5F0F071
:10070300A322851183851082E0C0E0A3E0F9A3E072
:10071300FAA3E0FBA37808E0F608A3DFFAE0FCA362
:10072300E0FDA3E0FEA3E0FFA3E0C0E0A3E0C0E0A0
:10073300A3E0F5D0A3E0F520A3E0A3F5F010AF0804
:100743008583118582108008858311858210D2AF3D
:10075300D082D083D0E0F8D0E032740380047402F6
:100763008000C0E0F4041205C9D0E01204AE227484
:10077300038000CCC0E0EDC0E0E510C39CCCAD111C
:1007830050011D10AF068C108D1180068C108D1139
:10079300D2AF1204BBD0E0FDD0E0FC2274F112060C
:1007A3000074F8120598750800750900750A00753C
:1007B3000B0085080C85090D7402780C120585AAB7
:1007C3000CAB0D74022AF874F13BF990F1B2E02AF4
:1007D300FAA3E03BFB8A82F583E088828983F08A6F
:1007E300828B831209E6F08A828B831209E5A3F0D8
:1007F3008A828B83A31209E5A3A3F090F6AB780852
:1008030012045E90F6AF78081203F650A590F6B383
:1008130078081203F650030209AE74041205E4E4E7
:10082300F0A3F0A3F0A3F085080C85090D740278FA
:100833000C120585C00CC00D74041205E4780C126B
:100843000484D00FD00EE50E250CF8E50F350DF915
:1008530074FE28F58274F039F583E0C0E074041265
:1008630005E4780C120484851082851183E58225C2
:100873000CF582E583350DF583D0E0F090F6AB7887
:100883000C12048474041205E4780C12047190F6BB
:10089300AF780C12048474041205E4780C1203E696
:1008A3004085E508540360030209518510828511D0
:1008B30083E0F50C74011205E41209DC74021205DD
:1008C300E4E0F874011205E4E8F074031205E4E0CF
:1008D300F974021205E4E9F074031205E4E50CF07F
:1008E300851082851183E0FA74942AF582E434F446
:1008F300F5831209DC1209B8C0E074011205E4D0D3
:10090300E0F0749429F582E434F4F583E0C0E074F4
:10091300021205E4D0E0F074031205E4E0F81209D2
:10092300B8C0E074031205E4D0E0F085080C850933
:100933000D850A0E850B0F7402780C12044574940E
:10094300250CF58274F5350D120C0FE068F085085F
:100953000C85090D7402780C1205857402250CF8B8
:1009630074F1350DF9851082851183E0FAE824F0DE
:100973001209C4F074011205E4E0FAE824F1120943
:10098300C4A3F074021205E4E0FAE824F21209D6D3
:10099300F074031205E4E0FAE824F31209D6A3F095
:1009A30090F6AB780812045E02081074081205AEC4
:1009B3007F08020666749428F582E434F4F583E034
:1009C300221209C822F582E934FFF583E06A88829E
:1009D3008983221209C8A3A322E08510828511838B
:1009E300F022A3A3E088828983A32274F61206006F
:1009F300890A7E007F00EEF5087509007402780805
:100A0300120585AC08AD09EFFAE50AF5087509008A
:100A130074047808120585E5082CF8E5093DF9E822
:100A23002AF8E439F9740228F58274F139F583E080
:100A3300F50890F100E02CF8A3E03DF9E82AF582EF
:100A4300E439F583E06508F00FEFC3940440A70E83
:100A5300EEC39404409E7F0302066674F7120600F9
:100A63007A007B00EAFCEBF508750900740278084C
:100A730012058590F100121C80E82CF8E439F988FE
:100A830082F583E0FC74942CF582E434F4F583E07E
:100A930088828983F00BEBC3940440C80AEAC394A9
:100AA3000440BF02107BC082C08390F100E02401A8
:100AB300120B412405120B0A2409120AF5240D1204
:100AC3000B12F090F100E02402120B41240A120BE6
:100AD3001E2406120B41240E120B1E2403120B417B
:100AE300240F120B0A240B120AF52407120B12020D
:100AF300103BFAA3E03400FB8A82F583E08C828DFD
:100B030083F090F100E022120B2C90F100E022120E
:100B13000B338B83F0E88C828D8322120B2CE88CB1
:100B2300828D83F090F100E022120B338983F0224F
:100B3300FCA3E03400FD8C82F583E08A8222F8A3D3
:100B4300E03400F9E8FAE98882F583E0F890F100EF
:100B5300E022E975F01BA2E7E433A4F8E93368F96E
:100B63002274F112060074FF120598750E00E50E4B
:100B7300F5087509007402780812058590F100E004
:100B83002508FEA3E03509FF8E82120C0FF08E823A
:100B93008F83A385820C85830DE068F9EE2403F52A
:100BA3000AE43FF50BEE2402F508E43FF509120CC5
:100BB30000E06968F50F120B55E9650FF88E828F17
:100BC30083E068F0850882850983E0F8850C8285D7
:100BD3000D83120C1A120C00120C1A851082851147
:100BE30083E0F8850A82850B83120C1A050EE50E45
:100BF300C394045003020B7174010209B0850A8285
:100C0300850B83E0F885088285098322F583E0F864
:100C130085108285118322E068F9120B55E9650F6F
:100C2300F8E068F022EEC0E079001209EE7E0112CE
:100C33000A5E120AA9120B64EEF91209EE0EEEC354
:100C4300940A40EB120A5E120AA9790A1209EED03D
:100C5300E0FE2274F81206007E00EEF8EC1219E8AA
:100C63003DF583E0C0E0EA1219E83BF583D0E0F0FC
:100C73000EEEC3941040E302117E53CBEFC2D84370
:100C8300CB0475F00CEAA4F5CDE5CB54FC4402F596
:100C9300CB43CB10A2D850FC53CBEFC2D822D2AF58
:100CA30022C2AF22A8A8C2AFE8A2E7E433FA7B00CE
:100CB30022EAA2E092AF22D29122C29122C0E07432
:100CC300F21206A690F1B4121AA4600612140D12C1
:100CD30005FE7F0102070574F712060075084075CB
:100CE30009007808120761120F3B1205AE90DF3638
:100CF300E054EF64016004C2AF80FEA3E0C3940339
:100D03005004C2AF80FE53BEFBE5BEA2E650FA53C9
:100D1300C6BF43BE0474F3F5D57481F5D490DF13D5
:100D2300743CF0A37414F090DF02743DF090DF0480
:100D33007405F090DF2E748EF090DF257409F09027
:100D4300DF0774121217BE7425F0A37495F0A37411
:100D530055F0A3741DF0A37455F0A3741312131D5F
:100D63007463F090DF15741DF0A314F0A374C7121D
:100D730017BE74B0F0A374B6F0A37410F0A374EAB2
:100D830012132890DF237488F0A37431F090F33C9E
:100D93007402F079001210B47E007F0075E10275D1
:100DA300081475090590DF3CE05450701F7A407BAE
:100DB30000121041E50824C0F508E50934FFF509E0
:100DC300C3E5089401E509120F4A50D97810EE25BE
:100DD300E0FEEF33FF90DF3AE0A2E0E433FAEE4ABD
:100DE300FED8EB74804EF5BCEFF5BC12101290F3F5
:100DF3007D74141217CF90F37F74FA1217CF439AAE
:100E030001D2AF02107BC0E074F11206A690F33C4E
:100E1300E064036004C2AF80FEE5E9A2E45029E583
:100E2300E9A2E6502353E9EF53E9BF539BFC1210A9
:100E33001275083E7509007808120761120F3B12FC
:100E430005AE120FA8020F3653E9EF539BFC75084A
:100E530002750900780812076190F33DE004F87405
:100E63003D28FCE434F3FD7A7B7BF31221FC74020E
:100E73001205AEE0FA90F37CE0A2E74003020F25EF
:100E8300EA79002401500109C3943F120F4940033A
:100E9300020F25EAC394085003020F2590F389E05B
:100EA300603A7C007B007A00EAF8743E1219E83459
:100EB300F3F583E0FD121183E06D70010C7493125E
:100EC30019E834F6F583E06D70010B0AEAC3940464
:100ED30040D674046B600574046C704690F37BE039
:100EE300F9121080E9F0A3E0C2E7F090F33D7C8AA9
:100EF3007DF374401204BB90F394E0FA90F38AE01C
:100F030024F8F8E434FFF974026849700A747F6ABC
:100F1300700590F3D38008747E6A700690F3D274E0
:100F230001F075083E7808120761120F3B1205AEF7
:100F330043D6017F020207057C007D007A3D7BF3E7
:100F4300122295740222E99400A2D265D03322744E
:100F5300F812060090F33CE064016014AEA8C2AF3F
:100F6300E0640370031210127401F0EEA2E792AF73
:100F730002117EC082C083E5C6A2E65004C2AF80E0
:100F8300FE90F33CE06401701990DF1C74EA1217C1
:100F9300CB90F33C7402F075E10490DF3BE0640115
:100FA30070F802103C74F712060090F38174DFF0BE
:100FB300A374D9F074F3A3F0743DA3F0A37480F089
:100FC300A37440F0A37413F0A37411F075D6817564
:100FD300083E7509007808120761120F3B1205AE2F
:100FE30043D601539BFC53E9EF75E1024391100291
:100FF300107BC082C08390F33CE064017004C2AFF5
:1010030080FEE0640360067403F0120FA8802AC018
:1010130082C0835391EF75E10490DF3BE06401707C
:10102300F875D68153D1FE539BFC53E9EF800AC078
:1010330082C08390F3E97404F0D083D0822274F7E2
:101043001206008A088B0974047808120576AE0824
:10105300AF09EA4B602285A808C2AF7A107B001261
:101063000C7DE508A2E792AFEEF8EFF9E824FF1E46
:10107300E934FFFFE84970DE7F02020666E9C394A4
:1010830080E94011F879FF7A027B00120515E82404
:10109300B7F8E98006C31324B7F8E434FFF9C3E8CB
:1010A3009480E994FFA2D265D03350027880E8F9A6
:1010B3002274F8120600E9FEC394044004C2AF8010
:1010C300FE12101274972EF582E434F6F583E09045
:1010D300DF06F090F33CE064037003120FA80211E3
:1010E3007E74F8120600E9FE90F4157452F0A374AE
:1010F3000FF090F417748EF0A37411F090F3CE7484
:1011030007F0A37420F0EAA3F0EBA3F090F3CA7402
:1011130007F0A37420F0ECA3F0EDA3F090F3D2E476
:10112300F090F3D3F090F3D4F090F3D5F0120CDAFF
:10113300120F76EEF91210B4120FF590F3CEE0F41D
:101143006022E090DF05F07A00EAF874CE1219E825
:1011530034F3F583E0C0E0121183D0E0F00AEAC370
:10116300940440E590F69BE0F47004C2AF80FE90D7
:10117300F3897401F090DF037407F07F01020666C0
:10118300749B28F582E434F6F58322120F76020F5E
:10119300F574F812060074D012059890F464742064
:1011A3001205F674101204BB90F47474101205F651
:1011B30074101204BB90F484AC10AD1174101204BB
:1011C300BB7EE87F0374101205F6AA10AB11120C54
:1011D3005690F100E510F0A3E511F074201205EE2E
:1011E30090F1B212147312079F120C28EE24FF1E03
:1011F300EF34FFFFEE4F70CD74301205AE02117E57
:1012030090F3DFE4F0E5C65480F853BEFB53C6BF4A
:10121300E5C6A2E640FA88C6E5C66870FB43BE048D
:1012230053F4FDC29143FE027AB67BF11220E67AB3
:10123300797BF21220E690F6B71204A2121F0B4339
:10124300E40C75DB6675DA6053E4EFC2B9A8A8C293
:10125300AF90F1B47430F0A37413F0E8A2E792AF47
:101263007901120CBA90F3DE7401F090F3DC74DEB2
:10127300F0A37425F090F3DA74EBF0A37425F079FE
:10128300007CEBFD7ADEFB1210E490F3D8E4F0A3CC
:10129300F090F3D6F0A3F0D2B943E402121F9E7983
:1012A30001120CBD90DF047422F090DF077406F086
:1012B30090DF097424F0A3742DF0A374DDF0A374FC
:1012C300E5F0A374A3F0A3743012131D7416F09009
:1012D300DF147418F0A314F090DF1B7411F0A374DF
:1012E300E912132890DF247431F0A37409F090DF1E
:1012F3002D7450F0A3F090DF377404F090DF39744D
:1013030080F090DF3CF0A374FDF075E103121194BB
:101313007901120CBA1211948082F0A37423F0A302
:101323007411F0A3221217CBA3741FF022C082C042
:101333008390F3DF740102103BC082C08390F3FCFF
:10134300E06422702290F3E9E0703D90F3FD121403
:101353001390F420121473E84979026005120CBA51
:10136300801C120CBD8017E0642090F3E97016E036
:10137300701690F3F67419F0A374F41217CF90F368
:10138300E9740280027404F002103CC082C08390AE
:10139300F3FCE0642190F3E97016E0701690F3F625
:1013A3007419F0A374F41217BE74071217C38002E2
:1013B3007404F002103C021032021032C082C08367
:1013C300E9FCEAFD7A007B00800790F3E1E0121468
:1013D3001990F3E012141390F6A1E0687003A3E0F0
:1013E30069601A1214036C700B90F3E01218521216
:1013F300141980091214036D70D0ED60CD02103CF6
:1014030090F3E112140DA3E49322E0F58388822282
:10141300E0F8A3E0F922F5838882E493F890F3E0FF
:10142300E028F8A3E0340012146F2274F7120600C8
:10143300E9FFEA1214637A0079021213BFEA4B60E0
:101443001CEF60108A828B83A3A3A3A3A3E4936FEF
:1014530070E48009EEF874FF28FE0470D902107B53
:10146300FE90F69FE0F8A3E012146F22F990F3E0E8
:10147300E8F0A3E9F02274F512060090DE0EE0FE18
:10148300E4F090DE11E0FFA2E4501D7480F090F3CD
:10149300E97407F0E5124513600985128285138309
:1014A3001205FE90F3E9E4F0EFA2E2500B90DE1197
:1014B300E4F090F3E9F0806290F3E9E064027043B2
:1014C30090DE16E0FF90F3F6120772EFF97A207BB5
:1014D300DE1217F874031205AEEFF890F3F9121742
:1014E300D412184CE92F1217AEA3121AA460047475
:1014F300408002744890DE11F0E84960030217A6A9
:10150300021782E06406700985128285138312052F
:10151300FE90F3E9E060030216B1EFA2E04003029C
:1015230017A67508FB7509F3750A00780812075D9D
:1015330079087A207BDE1217F874031205AE751250
:101543000075130090F3FBE054E0602524E0700382
:1015530002172C24E0700302171624C0700302162E
:101563005B24E0700302173724E0700302171E8028
:1015730063A3E014606124FE604F24FE600B24FC2F
:10158300606224FE6064021724121AA17046A3123B
:101593001AA4704090F3FDE05480F8A3E0F9E84901
:1015A300703290F3FDE090DE00F090F3E2600CE027
:1015B300640260030217407403800AE0640360035B
:1015C3000217407402F002174079011219EDE96025
:1015D3000302174002172479001219EDE960030290
:1015E300174080F0121DEA02174090F3E2E0640412
:1015F30070E290F3FBE0640170DA90F401121AA434
:1016030070D290F3FDE0FF90F3FFE0F5087A0090CD
:10161300F3E3E0F912142E7A0279041213BFEA4BB2
:1016230060B28A828B83A3A3E493650870E98A82FC
:101633008B83A3A3A3E4936F70DD90F3FDE0C0E07D
:1016430090F3FFE024E4F8A3E034F38882F583D039
:10165300E0F0121CA3021740A3E0600F24FA60110C
:1016630024FE601324FE606E021724121910021761
:1016730040121AAC021740A3121AA46003021724E3
:10168300A3121AA46003021724A3E064017002A347
:10169300E0600302172490F3F674E3F0A374F312EB
:1016A30017BE041217C3F07840E890DE11F090F3F0
:1016B300E9E06401600302179875080290F3F9C327
:1016C300E09420A3E09400400302175090F3F9E064
:1016D300FF75080A807990F3E2E06404704390F3A5
:1016E300FBE06481703B90F3FD121AA4703390F415
:1016F30001E064017002A3E0702790F3FFE024E4AB
:10170300F508A3E034F3F50990F3F6E508F0A3E553
:1017130009808C7512B975131380067512BC751385
:101723001390F3E97404F0801F75123C75131312C0
:10173300133C800975128E75131312138E90F3E9FF
:10174300E0640460030216AA78600216AC7F20905E
:10175300F3F6120772EFF97A207BDE121822740374
:101763001205AEEFFC12184CE92C1217AEEFF8A3DA
:101773001217D4E50890DE11F0EFC394205024E54E
:1017830012451360098512828513831205FE90F3B7
:10179300E9E4F0800EE06405700985128285138305
:1017A3001205FEEE90DE0EF0021E7EF9E43AFA9088
:1017B300F3F6E9F0A3EAF0A3EBF0221217CFA3228A
:1017C3001217CF90F3E90422F0A3742AF0A3E4F0F4
:1017D30022C3E098F0A3E09400F022C082C083E922
:1017E30090F3EA7805F0A3D8FC90F3EF7805F0A323
:1017F300D8FC02103C74F8120600EAFCEBFDE9F891
:1018030074081205E412184FE860118C828D83E08E
:1018130012042FE9240109E43AFAD8EF02117E7485
:10182300F8120600EAFCEBFDE9F874081205E4126D
:10183300184FE860111204158C828D83F0E924019E
:1018430009E43AFAD8EF02117E90F3F6E0F9A3E047
:10185300FAA3E0FB22C0E074F11206A6E5BEA2E6FD
:1018630050FA90DE06E0F9A2E25034AA17EA90DEBD
:101873000BF0F50885180974047808120576E50855
:1018830090DE07F08A08851809740978081205762E
:10189300E508543E90DE09F090DE01E0D2E0F0E985
:1018A300781446F690DE02E0F508750900740478B2
:1018B300081205857814E50846F608E50946F6900A
:1018C300DE04E0F5087509007409780812058578C7
:1018D30015E50946F6E9A2E05003751601740659A9
:1018E3006003751600758B00C2E8020F36C0E07402
:1018F300F21206A6E5BEA2E650FAE589A2E7500574
:10190300C2BD121EFA758900C2C5020CD5C082C0C1
:101913008390F3FD121AA460030219DFA3A3E0600E
:10192300030219DFA3E064027002A3E0600302195B
:10193300DF90F3FBE02480600914604D14605A02C9
:1019430019DF90F3FFE060030219DF90F3F5E090F5
:10195300F40360077401F0A3E48003E4F0A3F090C0
:10196300F3F4E0600790F403E04402F090F3E9E05D
:101973006404601290F3F67403F0A374F41217BEB8
:1019830074021217C3F002103C90F3E2E064047097
:101993004B90F403E4F0A380D290F3FFE0547FF87C
:1019A30090F3E2E064047034E8C39406502E90F39D
:1019B300FFE05480600E1219E634F3F583E064030C
:1019C30070CF800E74EE1219E834F3F583E06403EC
:1019D30070BF90F4037401F0A3E4808F90F3E97473
:1019E3000480A274E928F582E422C082C083E9FC62
:1019F30090F401121AA4700D90F3E2E064046008FD
:101A0300121AA16003021A9690F3FBE0541F6008B8
:101A1300146020146010807B90F3FDE06401701368
:101A2300EC90F3F4807290F3FFE0547FF990F3FDB0
:101A3300E0600479008064E9C394065056E990DEBF
:101A43000EF090F3FFE054806020EC60047410808B
:101A530002744090DE11F0EC600478038002780099
:101A630074E929F582E434F3801FEC600478208064
:101A7300027880E890DE14F0EC600478038002784A
:101A83000074EE29F582E434F3F583E8F090DE0E7A
:101A9300E4800590F3E97404F0790102103C90F3BB
:101AA300FFE0F8A3E0F9E8492274F512060090F389
:101AB300FEE014600814601114603F806512146422
:101AC3007A0079011213BF804890F3FDE0FA7900A0
:101AD30012142E121C6B7B80E92402F9E43AFA12E9
:101AE3000415FC1919E0FAA3E92403F9E43AFA12FC
:101AF3000415F9ECA3F0A3E9802490F3FDE012149C
:101B0300637A0079031213BFEEFF74FF2FFE047094
:101B1300F0121C6BA37B80120415A3F0A3E4F00264
:101B23001C2690F3F6E4F0A3F0A3F07A00021BFB6B
:101B3300EAF50875090074037808120585121C85F7
:101B4300E493FC90F3FEE0F9E4C96C7001E46003F4
:101B5300021BFAEAF508890974037808120585124D
:101B63001C85A3E493FC90F3FDE06C7001E4600337
:101B7300021BFAEAF508890974037808120585122D
:101B83001C9DE493FC90F400E0F9E4C96C7001E45B
:101B93007065EAF508890974037808120585121C33
:101BA3009DA3E493FC90F3FFE06C7001E47048EABA
:101BB300F50889097403780812058590F6A3121CA9
:101BC300808882F583A3A3A3A3E493F50874019308
:101BD300F50990F3F6E508F0A3E509F0A37480F0A6
:101BE30088828983A3A3A3A3A3A3E493F874019393
:101BF300F990F3F91214730AEAFC90F6A312141382
:101C03007583F67582A5E0C398F508A3E099F509F5
:101C130074037808120576C3EC9508E4950950031C
:101C2300021B3390F3F6E0FCA3E0FDA3E0FEEC4DD2
:101C33004E90F3E970047404802AE06404602690F3
:101C4300F3F91214137583F4758201C3E098A3E0CA
:101C530099500C90F40112141390F3F91214739029
:101C6300F3E97401F0021E7E90F3F6EAF0A3EBF0C1
:101C7300A37480F090F3F6E0F9A3E0FA22121C9427
:101C8300F922121C892290F6A3121C948882F583F0
:101C930022E02508F8A3E0350922121C89A3A32218
:101CA30074F11206008A0E8B0F8A828B83A3A3A37F
:101CB300A3E493602490F6A7E0FEA3E0FF8007EE81
:101CC3002404FE50010F8E828F83E493F8740193F2
:101CD300F9EA687002EB6970E6750800804990DEE6
:101CE300147490F07410121DDB70027940750A01B0
:101CF300750B00E509780A1205858E828F83A3A3ED
:101D0300A393550A6004E9D2E0F9E990DE15F0EAFD
:101D130090DE13F0A80974EE1219E834F3F583E4A6
:101D2300F090DE0EF00508850E82850F83A3A3A332
:101D3300A3E493F8E508C3984003021DD87A007919
:101D4300051213BF8A0A8B0BAC0AAD0BEA4D60D5A3
:101D5300EA2402F50CE43DF50D850C82F583E4934A
:101D6300540FF50990DE0EF079008A828B83A3A3CA
:101D7300A3A3E4932407F50AA3E4933400F50B74B7
:101D830003780A120576AA0A850C82850D8393A22D
:101D9300E74003021CE190DE117448F07408121D41
:101DA300DB70027940750A01750B00E509780A12A8
:101DB30005858E828F83A3A393550A6004E9D2E03D
:101DC300F9E990DE12F0EA90DE10F0A8091219E6A4
:101DD30034F3021D200209B3F08C828B83A3A3A3E7
:101DE300E493540364012274F512060090F3E2E0D5
:101DF30064026071121AA1706CA3121AA470669027
:101E0300F3FEE0706090F3FDE060627A00F9121473
:101E13002E8A088B09AE08AF09EA4F604890F3E2B7
:101E23007404F090F3FDE090F3E3F07508008E8204
:101E33008F83A3A3A3A3E493F8E508C398503CA816
:101E43000874E41219E834F3F583E4F07A007904B2
:101E53001213BF8A828B83A3A3A3E49370EE121C95
:101E6300A3050880C990F3E97404F0800E90F3E3AE
:101E7300F090F3E27403F0F91217DE7F04020666B2
:101E8300C082C083C29190F415121AA46006121482
:101E93000D1205FE90F4057453F0A374BEF0A37401
:101EA300FCF0A37443F0A374BEF0A37401F0A37415
:101EB30075F0A37487F0A37401F0A374E5F0A37421
:101EC30016F0A37470F0A374F3F0A37422F0758971
:101ED30000C2C5D2BD780579F490F4131214738847
:101EE3008289831205FE90F417121AA46006121455
:101EF3000D1205FE02103CC082C08390F40AE4F088
:101F0300A3F0A3F0A302103B74F51206008A088B1A
:101F1300098C0A8D0B90F4197808120493A3E4F04A
:101F2300A3F0A37408F090F420E4F0A3F090F4225B
:101F330004F07A00F912142E8A828B83A3A3A3A33D
:101F4300A3A3A3E493A2E65004D2F08002C2F0A2BA
:101F5300F0E43390F3F5F090F3F4E4F043BE80D271
:101F6300BDF514F515F5167517FF7518FF90DE0B03
:101F730074FFF090DE07F090DE09743EF0438C109E
:101F8300758900C2C5758B00C2E8439A0253F4FEFB
:101F9300D29043FE01120CA1021E7E74F6120600BB
:101FA300A814E85404601D7814E654FBF690F3E299
:101FB30074021217CF90F3E9F079031217DE75124A
:101FC30000751300A814E8541060097814E654EF60
:101FD300F6121479A814E8A2E0500E781454FEF611
:101FE300121E837814E654FDF690F422E070030287
:101FF30020CB90F420121AA470030220CB120CA45D
:1020030090DE0E1220DA90DE14E0A2E0506390DE40
:1020130016E0FEA3E090F276E0F874C0C398F8955A
:10202300E0F9EEFAC3E89A120F495008E0F874C0D9
:10203300C3988001EEFFEF60387508237509F475C6
:102043000A00780812075DEFF97A287BDE1217F889
:1020530074031205AEEFF97C237DF47AB67BF1129B
:102063002114EF6E700B90DE0E7404F090DE14E416
:10207300F01220CE120CA41220DA90DE11E0A2E0BE
:10208300404390F339E0FE603CC3944140027E40FC
:10209300EEF97C237DF47A797BF21221787508239B
:1020A3007509F4750A00780812075DEEF97A287B42
:1020B300DE12182274031205AE90DE0E7404F09043
:1020C300DE117401F01220CE020A5990F463E090FD
:1020D300DE0EF0120CA122E090F463F090DE0E7499
:1020E30004F02274F7120600EAFEEBFF120CA7EECF
:1020F3001221CFE4F0EE24C1F582E43FF583E4F04E
:10210300EE24C2F582E43FF583E4F0120CB402102E
:102113007B74F3120600EAFEEBFF8C088D09890B32
:10212300120CA71221C9A80B28F8E43400F9E8948B
:10213300C0E99400C365D033750A00502E801E2475
:10214300C2F8E43FF91221D8E0C0E0888289831203
:1021530021F1D0E01221E57002E4F0050AE50AC39B
:10216300950BEE40DA1221CA250AF0120CB4A90A23
:102173007F0602066674F3120600EAFEEBFF8C0884
:102183008D09890B120CA7750A00801FEE24C1F874
:10219300E43FF98882F5831221F1E0C0E01221D8EF
:1021A300D0E01221E57002E4F0050AE50AC3950BBD
:1021B300500A1221C9F8E50AC39840D0A80A12218F
:1021C300C9C398F080A5EE1221CFE02224C0F58286
:1021D300E43FF58322AC0AE5082CF582E43509F5E2
:1021E3008322F088828983E004F0E064C022E0FC6B
:1021F300EE2CF582E43FF5832274F7120600EAF829
:10220300EBF98A088B0974091205E4E0FEA3E0FFE9
:10221300C3EA9CEB9D405AEC2EF582ED3FF583C358
:10222300E5829508E58395094047EA2EFAEB3FFBE3
:10223300AC82AD83122282603DEC24FF1CED34FF9F
:10224300FDEA24FF1AEB34FFFB8C828D83E08A8244
:102253008B83F080DF8C828D83E08A828B83F08C8A
:10226300828D83A3AC82AD838A828B83A3AA82AB44
:102273008312228270DFE8FAE9FB7F020206668E90
:10228300088F09E50824FF1EE50934FFFFE508452B
:102293000922C082C083851082851183E0F8A3E000
:1022A300F9E84960128A828B83ECF0A3E824FF18D3
:0C22B300E934FFF94870F2D083D0822299
:04000005000000D522
:00000001FF
