:020000040000FA
:1000000002003400000080FB7A007BF1900043780E
:100010004879028015E493A3AD82AE838A828B83F4
:10002000F0A3AA82AB838D828E83D8E9D9E7120927
:100030003C12000375D0007581BF7510007511F179
:1000400002000800000000000000000000000000A6
:1000500000000000000000000000000000000000A0
:100060000000000000000000000000000000000090
:10007000000000637C777BF26B6FC53001672BFE5D
:10008000D7AB76CA82C97DFA5947F0ADD4A2AF9CEE
:10009000A472C0B7FD9326363FF7CC34A5E5F171C5
:1000A000D8311504C723C31896059A071280E2EBCE
:1000B00027B27509832C1A1B6E5AA0523BD6B3295E
:1000C000E32F8453D100ED20FCB15B6ACBBE394AEB
:1000D0004C58CFD0EFAAFB434D338545F9027F50F2
:1000E0003C9FA851A3408F929D38F5BCB6DA2110F1
:1000F000FFF3D2CD0C13EC5F974417C4A77E3D6489
:100100005D197360814FDC222A908846EEB814DEB8
:100110005E0BDBE0323A0A4906245CC2D3AC629142
:1001200095E479E7C8376D8DD54EA96C56F4EA652C
:100130007AAE08BA78252E1CA6B4C6E8DD741F4B2B
:10014000BD8B8A703EB5664803F60E613557B98699
:10015000C11D9EE1F8981169D98E949B1E87E9CE46
:100160005528DF8CA1890DBFE6426841992D0FB05B
:1001700054BB168D01020408102040801B3601007C
:1001800000006D4EC64139300000080808EAC0E0A2
:10019000EBC0E086F0E7A4FA180986F0E7A42AFA93
:1001A000180986F0E7A42AFA180986F0E7A42AFAC3
:1001B0001986F0E7A4FBE5F02AFA190886F0E7A40F
:1001C0002BFBE5F03AFA190886F0E7A42BFBE5F0E3
:1001D0003AFA18180986F0E7A4C5F02BFBE43AFABE
:1001E0001908E7C5F0C6A426F6E5F03BFBE43AFAA9
:1001F0001886F0E7A4F6E5F00826F6E43B08F6E4F6
:100200003A08F6D0E0FBD0E0FA226016080808C6EB
:10021000C313C618C613C618C613C618C613C6D548
:10022000E0EA22E026F608A3E036F608A3E036F678
:1002300008A3E036F622E0F608A3E0F608A3E0F60D
:1002400008A3E0F622E6F008A3E6F008A3E6F0082B
:10025000A3E6F022CAC0E0E0A3C582CCC582C58374
:10026000CDC583F0A3C582CCC582C583CDC583DA55
:10027000E6D0E0CA22C3E498F8E499F91202B68005
:1002800026C3E49AFAE49BFBE920E7E91202B6E40C
:1002900098F8E499F922C3E498F8E499F91202B6BF
:1002A000E498F8E499F9C3E49AFAE49BFB22EB2082
:1002B000E7CFE920E7E0B90010BB0008E88AF08446
:1002C000F8AAF022E4FBC8FA22EB70227B10C833B4
:1002D000C8C933C9335007C39AC3DBF280069A50AA
:1002E000012ADBEAC833F4C8C933F4C9FA2275F02D
:1002F00008E4C833C8C933C933C99AC99B5004C973
:100300002AC93BD5F0ECFBC833F4C8E4C9FA226033
:100310000C08C6C313C618C613C6D5E0F422700471
:1003200022600D18C6C333C608C633C6D5E0F4181C
:1003300022251010AF08F510400C15118008F5109B
:1003400040021511D2AF2200C0D0251010AF08F521
:1003500010500C05118008F51050020511D2AFD0D5
:10036000D0222510F582E43511F583222510FAE418
:100370003511FB222510FCE43511FD222510C58224
:10038000C0E0E51134FFC583C0E0E510C3958224C9
:10039000F910AF0885831185821080088583118547
:1003A0008210D2AFCEF0A3E520F0A37808E608F0E3
:1003B000A3DEFAEFF0A3E58124FBF8E608F0A3E65C
:1003C00008F0A30808E608F0A3E608F0A3158115D5
:1003D00081D0E0FED0E0F815811581E8C0E0EEC0E4
:1003E000E022851183851082E0A3FEE0A3F520784A
:1003F00008E0A3F608DFFAE0A3FFE0A3C0E0E0A373
:10040000C0E0E0A3C0E0E0A3C0E010AF0885821028
:100410008583118008858210858311D2AFD083D067
:10042000822274F112037CEAFEEBFF7A007B008AE1
:10043000088B097402780812031E85080A85090BC7
:10044000EE250AF8EF350BF9EC250AF508ED350B2A
:10045000F509850882F583E0888289831207911265
:100460000595120791120594A3120791A312059402
:10047000A3A3F00AEA70010BC39404EB940040AF0D
:100480007A047B00EA24FF12057912031E85080C0A
:1004900085090DEE250CF8EF350DF5098882F583F9
:1004A000E0F9A3E0F50A8882850983A3A3E0FD882B
:1004B00082850983A3A3A3E0FCEA5403703D890B62
:1004C000A90A74302D120840F50A12083DFDE50B0B
:1004D000F50874302508120840FC8A088B0974025C
:1004E000780812030F74302508F58274F23509F587
:1004F00083E0F874302912084068F98A088B09747F
:1005000002780812031E85080E85090FEA24FC12E2
:10051000057912031E85080C85090DEE250EF508D8
:10052000EF350FF509EE250CF50CEF350DF50D85C2
:100530000C82F583E06985088285098312058BE0CA
:10054000650A850882850983120585E06D85088224
:10055000850983A3120585A3E06C8508828509833C
:10056000A3A3A3F00AEA70010BC3942CEB940050F0
:10057000030204847F080203E2F508EB34FFF50967
:100580007402780822A312058BA322F0850C8285C1
:100590000D83A322A3A3E088828983A322020422DD
:1005A00074F312037C750C00750D00E50CF50875ED
:1005B00009007402780812031E85080A85090BAE2B
:1005C0000DE9F5087509007404780812031EE508A2
:1005D000250AF508E509350BF509E5082EF508E4C7
:1005E0003509F509EC2508F582ED3509F583E0F8C4
:1005F000EA250AF508EB350BF509E5082EF582E446
:100600003509F583E068F0050DE50DC3940440AFAE
:10061000050CE50CC39404408F7F060203E274F8D6
:1006200012037C8A828B83A3AC82AD83E0F8EA2438
:10063000051206ACEA240912069C240D1206ACE849
:100640008E828F83F0EA240212068D240A1206BBE2
:10065000240612068D240E1206BB2403E43BF91C6B
:100660001C1C8C82F583E0F8EA240F0E1206C7EA00
:10067000240B12069C2407FA50010BF5828B83127F
:1006800006B4E88A828B83F07F010203E2F8E43B40
:10069000F9E8FCE98882F583E0F8EA22FCE43BFD16
:1006A0008C82F583E08E828F83F0EA22FEE43BFFAA
:1006B0008E82F583E08C828D83F022FE1206C7E8DD
:1006C0008E828F83F0EA22E43BFF8E82F583E08CFA
:1006D000828983F022E975F01BA2E7E433A4F8E9EC
:1006E0003368F92274F112037C74FD120331740132
:1006F000120362EAF0A3EBF0750E00E50EF5087543
:1007000009007402780812031E04120362E025082F
:10071000FEA3E03509FF8E82F583E0F8851082851F
:100720001183F08E828F83A385820C85830DE06810
:10073000F9EE2403F50AE43FF50BEE2402F508E494
:100740003FF509120799E06968F50F1206D5E965CA
:100750000FF88E828F83E068120791E0F8850C8293
:10076000850D831207A81207991207A885108285A4
:100770001183E0F8850A82850B831207A8050EE530
:100780000EC3940450030206FB74031203470205D0
:1007900074F085088285098322850A82850B83E0AF
:1007A000F885088285098322E068F91206D5E96593
:1007B0000FF8E068F02274F312037CEAFEEBFF8C82
:1007C0000A8D0B79001205A07508018016EEFAEF6C
:1007D000FB1206E4AC0AAD0BEEFAEFFBA90812051A
:1007E000A005087A007B00EBF50C750D007402780B
:1007F0000C12031EEAF8EE28F8E43FF9E8250CF89D
:10080000E9350DF98882F583E0FC12083D8882897C
:1008100083F00BEBC3940440CE0AEAC3940440C5B2
:10082000EEFAEFFB12061E740A650870A0AC0AAD62
:100830000BEEFAEFFB790A1205A002061974302CB0
:10084000F582E434F1F583E022EAF8EBF9E824FFDD
:100850001AE934FFFBE849601778397903E8FCE9C5
:10086000FDEC24FF18ED34FFF9EC4D60DC0080ED69
:100870002263900222C082C08390DF0074D3F0A371
:100880007491F0A374FFF0A37404F0A3742212090E
:100890003074061209367424F0A3742DF0A374DDAD
:1008A000F0A374E5F0A374A3F0A37430F0A3742351
:1008B000F0A37411F0A37416F0A37407F0A37430BE
:1008C000F0A37418F0A314F0A3746CF0A37403F0F5
:1008D000A37440F0A37491F0A37456F0A37411F0C4
:1008E000A374E9F0A3742A120936741FF090DF2371
:1008F0007488F0A37431F0A37409F090DF27E4F05A
:10090000A3F0A3F0A3F0A3F0A3F0A374C2F0A3128A
:100910000930F090DF367411F0A3740312093074BB
:1009200080F0A374011209367494F0D083D082222F
:10093000120936F0A322F0A3E4F0A32274101203EC
:100940003153BEFBE5BEA2E650FA53C6BFE5C6A2D0
:10095000E240FA43BE0443FE02C29175E10490DF17
:100960003BE0640170F81208757A397B05120A833E
:1009700075E103E0641370FB90F1007420120374BE
:10098000741012025490F110741012037474101247
:10099000025490F120AC10AD117410120254FEFFFD
:1009A00075E10490DF3BE0640170F875080075099B
:1009B00000120A3C7410120362E5822508F582E5F4
:1009C000833509F583EAF00508E50870020509C3D7
:1009D0009410E5099400A2D265D03340D4EEF8EF2C
:1009E000F97A027B001202AEEA4B70047420800296
:1009F0007410120374743012036C12059D7A327BEA
:100A00000012084975E10390DF3BE0641370F8744D
:100A100030120374AA10AB111207B60EEE70010F5C
:100A2000C39420EF944EA2D265D03350030209A0A4
:100A30007AD07B0712084912087180F474F112030E
:100A40007C90F23B780812023690F23F780C12024A
:100A5000367808790C12018A90F243780812022342
:100A600090F23B780812024590F23B780812023669
:100A70007410780812020AAA08E509547FFB7F085F
:100A80000203E2C082C08390F23BEAF0A3EBF0A342
:090A9000E4F0A3F0D083D082222F
:0400000500000034C3
:00000001FF
