:020000040000FA
:1000000002003400000080FB7A007BF1900043780E
:100010002C79028015E493A3AD82AE838A828B8310
:10002000F0A3AA82AB838D828E83D8E9D9E712062A
:10003000F212000375D0007581BF7510007511F1C3
:1000400002000800000000000000000000000000A6
:1000500000000000000000000000000000000000A0
:10006000000000637C777BF26B6FC53001672BFE6D
:10007000D7AB76CA82C97DFA5947F0ADD4A2AF9CFE
:10008000A472C0B7FD9326363FF7CC34A5E5F171D5
:10009000D8311504C723C31896059A071280E2EBDE
:1000A00027B27509832C1A1B6E5AA0523BD6B3296E
:1000B000E32F8453D100ED20FCB15B6ACBBE394AFB
:1000C0004C58CFD0EFAAFB434D338545F9027F5002
:1000D0003C9FA851A3408F929D38F5BCB6DA211001
:1000E000FFF3D2CD0C13EC5F974417C4A77E3D6499
:1000F0005D197360814FDC222A908846EEB814DEC9
:100100005E0BDBE0323A0A4906245CC2D3AC629152
:1001100095E479E7C8376D8DD54EA96C56F4EA653C
:100120007AAE08BA78252E1CA6B4C6E8DD741F4B3B
:10013000BD8B8A703EB5664803F60E613557B986A9
:10014000C11D9EE1F8981169D98E949B1E87E9CE56
:100150005528DF8CA1890DBFE6426841992D0FB06B
:1001600054BB168D01020408102040801B36CAC003
:10017000E0E0A3C582CCC582C583CDC583F0A3C50D
:1001800082CCC582C583CDC583DAE6D0E0CA2260C1
:100190000C08C6C313C618C613C6D5E0F4227004F3
:1001A00022600D18C6C333C608C633C6D5E0F4189E
:1001B00022251010AF08F510400C15118008F5101D
:1001C00040021511D2AF2200C0D0251010AF08F5A3
:1001D00010500C05118008F51050020511D2AFD057
:1001E000D0222510F582E43511F583222510FAE49A
:1001F0003511FB222510FCE43511FD222510C582A6
:10020000C0E0E51134FFC583C0E0E510C39582244A
:10021000F910AF08858311858210800885831185C8
:100220008210D2AFCEF0A3E520F0A37808E608F064
:10023000A3DEFAEFF0A3E58124FBF8E608F0A3E6DD
:1002400008F0A30808E608F0A3E608F0A315811556
:1002500081D0E0FED0E0F815811581E8C0E0EEC065
:10026000E022851183851082E0A3FEE0A3F52078CB
:1002700008E0A3F608DFFAE0A3FFE0A3C0E0E0A3F4
:10028000C0E0E0A3C0E0E0A3C0E010AF08858210AA
:100290008583118008858210858311D2AFD083D0E9
:1002A000822274F11201FCEAFEEBFF7A007B008AE5
:1002B000088B097402780812019E85080A85090BCB
:1002C000EE250AF8EF350BF9EC250AF508ED350BAC
:1002D000F509850882F583E08882898312060E126B
:1002E000041512060E120414A312060EA31204140F
:1002F000A3A3F00AEA70010BC39404EB940040AF8F
:100300007A047B00EA24FF1203F912019E85080C8F
:1003100085090DEE250CF8EF350DF5098882F5837A
:10032000E0F9A3E0F50A8882850983A3A3E0FD88AC
:1003300082850983A3A3A3E0FCEA5403703D890BE3
:10034000A90A74202D1206BDF50A1206BAFDE50BA6
:10035000F508742025081206BDFC8A088B09740272
:10036000780812018F74202508F58274F23509F59A
:1003700083E0F87420291206BD68F98A088B097495
:1003800002780812019E85080E85090FEA24FC12E6
:1003900003F912019E85080C85090DEE250EF5085E
:1003A000EF350FF509EE250CF50CEF350DF50D8544
:1003B0000C82F583E06985088285098312040BE0CD
:1003C000650A850882850983120405E06D85088227
:1003D000850983A3120405A3E06C8508828509833F
:1003E000A3A3A3F00AEA70010BC3942CEB94005072
:1003F000030203047F08020262F508EB34FFF509EB
:100400007402780822A312040BA322F0850C8285C3
:100410000D83A322A3A3E088828983A32274F3120D
:1004200001FC750C00750D00E50CF50875090074EC
:1004300002780812019E85080A85090BAE0DE9F5C0
:10044000087509007404780812019EE508250AF56C
:1004500008E509350BF509E5082EF508E43509F539
:1004600009EC2508F582ED3509F583E0F8EA250A5F
:10047000F508EB350BF509E5082EF582E43509F5AD
:1004800083E068F0050DE50DC39404409B050CE581
:100490000CC39404408F7F0602026274F81201FCC0
:1004A0008A828B83A3AC82AD83E0F8EA240512052F
:1004B00029EA2409120519240D120529E88E828FD4
:1004C00083F0EA240212050A240A120538240612CF
:1004D000050A240E1205382403E43BF91C1C1C8C6D
:1004E00082F583E0F8EA240F0E120544EA240B1289
:1004F00005192407FA50010BF5828B83120531E8A8
:100500008A828B83F07F01020262F8E43BF9E8FC07
:10051000E98882F583E0F8EA22FCE43BFD8C82F571
:1005200083E08E828F83F0EA22FEE43BFF8E82F529
:1005300083E08C828D83F022FE120544E88E828F48
:1005400083F0EA22E43BFF8E82F583E08C8289838C
:10055000F022E975F01BA2E7E433A4F8E93368F967
:100560002274F11201FC74FD1201B174011201E256
:10057000EAF0A3EBF0750E00E50EF50875090074BE
:1005800002780812019E041201E2E02508FEA3E0B1
:100590003509FF8E82F583E0F8851082851183F09E
:1005A0008E828F83A385820C85830DE068F9EE240B
:1005B00003F50AE43FF50BEE2402F508E43FF509E4
:1005C000120616E06968F50F120552E9650FF88EFC
:1005D000828F83E06812060EE0F8850C82850D8319
:1005E000120625120616120625851082851183E053
:1005F000F8850A82850B83120625050EE50EC39445
:1006000004500302057874031201C70203F4F08555
:10061000088285098322850A82850B83E0F8850894
:100620008285098322E068F9120552E9650FF8E036
:1006300068F02274F31201FCEAFEEBFF8C0A8D0BCA
:10064000790012041D7508018016EEFAEFFB120501
:1006500061AC0AAD0BEEFAEFFBA90812041D050808
:100660007A007B00EAFCEBF50C750D007402780C47
:1006700012019EEE250CF8EF350DF9E82CF8E4395F
:10068000F98882F583E0FC1206BA88828983F00B30
:10069000EBC3940440CE0AEAC3940440C5EEFAEFDB
:1006A000FB12049B740A650870A0AC0AAD0BEEFA4D
:1006B000EFFB790A12041D02049674202CF582E4E3
:1006C00034F1F583E022EAF8EBF9E824FF1AE93483
:1006D000FFFBE849601778397903E8FCE9FDEC2471
:1006E000FF18ED34FFF9EC4D60DC0080ED226390E3
:1006F000022274201201B153BEFBE5BEA2E650FAFD
:1007000053C6BFE5C6A2E240FA43BE0443FE02C29E
:10071000917AE87B031206C67E037F00C2917AF4C9
:100720007B0180111206EE7A647B001206C6120667
:10073000EE7A647B001206C6EEF8EFF9E824FF1E9D
:10074000E934FFFFE84970DC7AF47B011206C675D4
:10075000E10490DF3BE0640170F890DF0074D3F0B7
:10076000A37491F0A374FFF0A37404F0A374221295
:100770000864F0A374061208647424F0A3742DF0C6
:10078000A374DDF0A374E5F0A374A3F0A37430F0B8
:10079000A37423F0A37411F0A37416F0A37407F0EC
:1007A000A37402F0A37418F0A314F0A3746CF0A364
:1007B0007403F0A37440F0A37491F0A37456F0A3F3
:1007C0007411F0A374E9F0A3742A120864741FF082
:1007D00090DF237488F0A37431F0A37409F090DFE4
:1007E00027E4F0A3F0A3F0A3F0A3F0A3F0A374C256
:1007F000F0A3120864F0A3F090DF367411F0A37434
:10080000041208647402F0A37480F0A37401120847
:10081000647494F075E10390DF3BE0641370F8902A
:10082000F10074101201F4741012016E90F110AC0A
:1008300010AD11741012016E1206EE7AE87B0312ED
:1008400006C61206EE74101201F474201201EC12A6
:1008500002A27E6474201201F4AA10AB11120633B6
:0A086000DEF280D4F0A3E4F0A3223E
:0400000500000034C3
:00000001FF
