:020000040800F2
:1000000000000120D91A0008FD1800080319000893
:10001000091900080F190008151900080000000050
:100020000000000000000000000000001B19000894
:100030002719000800000000331900083F190008C4
:10004000291B0008291B0008291B0008291B000880
:10005000291B0008291B0008291B0008291B000870
:10006000291B0008291B0008291B0008291B000860
:10007000291B0008291B0008291B0008291B000850
:10008000291B0008291B0008291B0008291B000840
:1000900000000000291B0008291B0008291B00087C
:1000A000291B0008291B0008291B0008291B000820
:1000B000291B0008291B0008291B0008291B000810
:1000C000291B0008291B0008291B0008291B000800
:1000D000291B0008291B0008291B0008291B0008F0
:1000E000291B0008291B0008291B0008291B0008E0
:1000F000291B00080000000000000000291B000868
:10010000291B0008291B0008291B0008291B0008BF
:10011000291B0008291B0008291B0008291B0008AF
:10012000291B0008291B0008291B0008291B00089F
:08013000291B0008291B00082F
:1001400010B5054C237833B9044B13B10448AFF311
:1001500000800123237010BD740000200000000007
:10016000486B000808B5034B1BB103490348AFF3C4
:10017000008008BD0000000078000020486B0008E7
:10018000034613F8012B002AFBD1181A01387047D7
:1001900001F0FF01102A2BDB10F0070F08D010F838
:1001A000013B013A8B422DD010F0070F42B3F6D13C
:1001B000F0B441EA012141EA014122F007047FF055
:1001C00000070023F0E80256083C85EA010586EAAC
:1001D000010685FA47F5A3FA87F586FA47F6A5FAE8
:1001E00087F68EB9EED1F0BC01F0FF0102F00702F4
:1001F00032B110F8013B013A83EA010313B1F8D19F
:100200000020704701387047002D06BF354603387F
:10021000073815F0010F07D1013015F4807F02BFB8
:10022000013015F4C03F0130F0BC0138704700BF09
:1002300053B94AB9002908BF00281CBF4FF0FF314D
:100240004FF0FF3000F074B9ADF1080C6DE904CE49
:1002500000F006F8DDF804E0DDE9022304B07047A1
:100260002DE9F047089E0D4604468846002B4DD1E7
:100270008A42944668D9B2FA82F252B101FA02F384
:10028000C2F1200120FA01F10CFA02FC41EA030854
:1002900094404FEA1C45210CB8FBF5FE1FFA8CF781
:1002A00005FB1E8341EA03430EFB07F199420BD97C
:1002B0001CEB03030EF1FF3080F01E81994240F2E7
:1002C0001B81AEF1020E63445B1AA4B2B3FBF5F0DE
:1002D00005FB103344EA034400FB07F7A7420AD9A1
:1002E0001CEB040400F1FF3380F00881A74240F2C8
:1002F000058164440238E41B40EA0E4000211EB12F
:10030000D4400023C6E90043BDE8F0878B4208D9FA
:10031000002E00F0EE800021C6E900050846BDE889
:10032000F087B3FA83F100294AD1AB4202D382426B
:1003300000F2F980841A65EB030301209846002E31
:10034000E2D0C6E90048DFE702B9FFDEB2FA82F286
:10035000002A40F09180A1EB0C054FEA1C471FFAE0
:100360008CFE0121B5FBF7F307FB1350250C45EA82
:1003700000450EFB03F0A84208D91CEB050503F16C
:10038000FF3802D2A84200F2CB8043462D1AA4B215
:10039000B5FBF7F007FB105544EA05440EFB00FEE1
:1003A000A64508D91CEB040400F1FF3502D2A6458E
:1003B00000F2BB802846A4EB0E0440EA03409EE70F
:1003C000C1F120078B4022FA07FC4CEA030C20FA0B
:1003D00007F405FA01F31C43FD404FEA1C4900FAFB
:1003E00001F3B5FBF9F8200C1FFA8CFE09FB185538
:1003F00040EA054508FB0EF0A84202FA01F20BD9CB
:100400001CEB050508F1FF3A80F08880A84240F215
:100410008580A8F1020865442D1AA4B2B5FBF9F055
:1004200009FB105544EA054500FB0EFEAE4508D910
:100430001CEB050500F1FF346CD2AE456AD90238D9
:10044000654440EA0840A0FB0294A5EB0E05A542D6
:10045000C846A64656D353D05EB1B3EB080265EB4F
:100460000E0505FA07F722FA01F3CD401F43C6E94E
:1004700000750021BDE8F087C2F1200320FA03F1E6
:100480000CFA02FC25FA03F395400D434FEA1C4792
:100490001FFA8CFEB3FBF7F107FB11302B0C43EA7C
:1004A000004301FB0EF0984204FA02F408D91CEB59
:1004B000030301F1FF382FD298422DD9023963444A
:1004C0001B1AADB2B3FBF7F007FB103345EA034547
:1004D00000FB0EF3AB4208D91CEB050500F1FF3819
:1004E00016D2AB4214D902386544ED1A40EA0141F4
:1004F00038E73146304607E78646E5E61846FAE62D
:100500004B45A9D2B9EB020864EB0C0E0138A3E706
:100510004046EAE7204694E74146D1E7D0467BE7EC
:10052000023B654432E7084609E76444023842E783
:10053000704700BF80B489B000AF78603960002395
:10054000FB6130E0FB699B003A681A44FB699B0041
:1005500079680B4412781A70FB699B0001333A6882
:100560001A44FB699B00013379680B4412781A70B6
:10057000FB699B0002333A681A44FB699B00023313
:1005800079680B4412781A70FB699B0003333A6850
:100590001A44FB699B00033379680B4412781A7084
:1005A000FB690133FB61FB69032BCBD90423FB619E
:1005B00081E0FB69013B9B00BB617A68BB69134426
:1005C0001B783B73BB6901337A6813441B787B73D8
:1005D000BB6902337A6813441B78BB73BB6903336E
:1005E0007A6813441B78FB73FB6903F00303002B49
:1005F00025D13B7BFB757B7B3B73BB7B7B73FB7BA1
:10060000BB73FB7DFB733B7B1A46304B9B5C3B73A0
:100610007B7B1A462D4B9B5C7B73BB7B1A462B4B1B
:100620009B5CBB73FB7B1A46284B9B5CFB733A7B42
:10063000FB699B082649CB5C5340DBB23B73FB69EB
:100640009B003B61FB69043B9B00BB617A68BB6913
:10065000134419783A7B78683B6903444A40D2B224
:100660001A70BB6901337A68134419787A7B3B6945
:100670000133786803444A40D2B21A70BB6902332E
:100680007A6813441978BA7B3B690233786803446B
:100690004A40D2B21A70BB6903337A68134419789E
:1006A000FA7B3B690333786803444A40D2B21A703C
:1006B000FB690133FB61FB692B2B7FF67AAF00BF2F
:1006C00000BF2437BD4680BC704700BF4C70000897
:1006D0004C71000880B582B000AF786039607B68EB
:1006E00039681846FFF726FF00BF0837BD4680BDB2
:1006F00080B487B000AF0346B9607A60FB73002313
:10070000FB7527E00023BB751EE0FA7DBB7DB96851
:1007100092000A4413441878FB7B9A00FB7D134433
:100720009A00BB7D13441A467B6813441978FA7DFE
:10073000BB7D4140C8B2B96892000A4413440246E6
:100740001A70BB7D0133BB75BB7D032BDDD9FB7DEF
:100750000133FB75FB7D032BD4D900BF00BF1C37D1
:10076000BD4680BC7047000080B485B000AF7860A3
:100770000023FB731DE00023BB7314E0BA7BFB7BFB
:10078000796892000A4413441B781846BA7BFB7BB5
:100790000C49085C796892000A44134402461A70B6
:1007A000BB7B0133BB73BB7B032BE7D9FB7B0133E3
:1007B000FB73FB7B032BDED900BF00BF1437BD46A4
:1007C00080BC70474C70000880B485B000AF786082
:1007D0007B685B78FB737B685A797B685A707B68AF
:1007E0005A7A7B685A717B685A7B7B685A727B683D
:1007F000FA7B5A737B689B78FB737B689A7A7B6879
:100800009A707B68FA7B9A727B689B79FB737B6832
:100810009A7B7B689A717B68FA7B9A737B68DB783A
:10082000FB737B68DA7B7B68DA707B68DA7A7B68DB
:10083000DA737B68DA797B68DA727B68FA7BDA7163
:1008400000BF1437BD4680BC704780B483B000AF92
:100850000346FB71FB795B005AB2FB79DB09DBB223
:10086000194649000B441946C800194603460B4473
:10087000DBB25BB253405BB2DBB218460C37BD460D
:1008800080BC704780B584B000AF78600023FB73F4
:10089000A4E0FA7B7B6813F82230BB73FA7B7B6899
:1008A00013F82220FB7B79689B000B445B78534054
:1008B000DAB2FB7B79689B000B449B785340DAB239
:1008C000FB7B79689B000B44DB7853407B73FA7B9E
:1008D0007B6813F82220FB7B79689B000B445B78D4
:1008E00053403B733B7B1846FFF7AFFF03463B7318
:1008F000FA7B7B6813F822103A7B7B7B5340DBB298
:10090000FA7B4B40D9B27B6803F82210FB7B7A68F4
:100910009B0013445A78FB7B79689B000B449B78BF
:1009200053403B733B7B1846FFF78FFF03463B73F7
:10093000FB7B7A689B00134459783A7B7B7B53405E
:10094000DAB2FB7B4A40D1B27A689B0013440A4674
:100950005A70FB7B7A689B0013449A78FB7B79681A
:100960009B000B44DB7853403B733B7B1846FFF7FF
:100970006CFF03463B73FB7B7A689B0013449978BA
:100980003A7B7B7B5340DAB2FB7B4A40D1B27A6838
:100990009B0013440A469A70FB7B7A689B001344C1
:1009A000DA78BB7B53403B733B7B1846FFF74DFF28
:1009B00003463B73FB7B7A689B001344D9783A7BF0
:1009C0007B7B5340DAB2FB7B4A40D1B27A689B0012
:1009D00013440A46DA70FB7B0133FB73FB7B032B6A
:1009E0007FF657AF00BF00BF1037BD4680BD80B552
:1009F00084B000AF786039600023FB733A6879688F
:100A00000020FFF775FE0123FB737868FFF7ACFE4B
:100A10007868FFF7D9FEFB7B0A2B0CD07868FFF7CC
:100A200031FFFB7B3A6879681846FFF761FEFB7B74
:100A30000133FB73E9E700BF3A6879680A20FFF7E2
:100A400057FE00BF1037BD4680BD80B582B000AFF5
:100A5000786039607B6819463868FFF7C8FF00BFC7
:100A60000837BD4680BD80B485B000AF78604FF0D8
:100A7000B043DA6C4FF0B0417B681343CB644FF066
:100A8000B043DA6C7B681340FB60FB6800BF14372F
:100A9000BD4680BC7047000080B584B000AF0346FF
:100AA000FB8007F10F02F9880123044802F0DBFF05
:100AB000FB7B18461037BD4680BD00BF9C0100205F
:100AC00080B582B000AF03460A46FB8013467B71B7
:100AD0007A1DF9880123034802F066FF00BF08373A
:100AE000BD4680BD9C01002080B582B000AF0346AA
:100AF0003960FB711346BB80BB88F9793A680348BB
:100B000003F012F800BF0837BD4680BD9C010020ED
:100B100090B585B000AF0446084611461A462346F4
:100B2000FB710346BB710B467B7113463B71FB792E
:100B30003B73BB797B737B79BB733B79FB7307F1A9
:100B40000C03042219469520FFF7CEFF00BF14378F
:100B5000BD4690BD80B584B000AF0346FB710B4627
:100B6000BB7113467B71FB79012B24D197F90630B9
:100B70000F2B06D10123012200210620FFF7C8FF19
:100B800005E00123012200210420FFF7C1FF97F9AE
:100B900006300D2B02DD0E23BB7106E097F90630FF
:100BA00013F1110F01DAEF23BB71182140F6E700B2
:100BB000FFF786FF25E040F6D800FFF76DFF0346FC
:100BC00043F01E03DBB2194640F6D800FFF778FF6A
:100BD0000123002207210420FFF79AFF97F906302E
:100BE000162B02DD1623BB7106E097F9063013F1D0
:100BF000090F01DAF723BB71382140F6E700FFF750
:100C00005FFFBB793B737B797B7307F10C03022297
:100C100019468E20FFF768FF00BF1037BD4680BD24
:100C200080B584B000AF0346FB710023BB60BB6896
:100C3000022B16D0BB68022B16DCBB68002B03D03E
:100C4000BB68012B0AD00FE097F907300F2B02DDAC
:100C50000223FB7309E00123FB7306E00123FB730E
:100C600003E00223FB7300E000BFFB7B022216219E
:100C70001846FFF76FFFFB7B18461037BD4680BD57
:100C800080B584B000AF73233B603B1D00221A6027
:100C90009A8000F04BFF00F057FC00F02FFD00F0B1
:100CA000A5FC00F0CDFC00F0DDFC00F013F9012301
:100CB000714A8421714802F037FF0346002B02D0AD
:100CC0006F4800F0B5F900F005F90023FB73162317
:100CD000BB7397F90E301846FFF7A2FF0346FB736C
:100CE00000F0F8F80123644A8021644802F01CFFF8
:100CF0000346002B02D0634800F09AF900F0EAF8AE
:100D00000423614A86215D4802F00EFF03467B738F
:100D10007B7B002B02D05D4800F08AF900F0DAF806
:100D200001235B4AC021554802F05DFF0346002BBA
:100D300003D0584800F07CF90FE0554B1B781B118D
:100D4000DBB203F00703DAB2534B1A70524B1B7835
:100D5000022B02D0514800F06BF900230022D12170
:100D6000464802F0E1FE03467B737B7B002B02D0FA
:100D70004B4800F05DF900F0ADF84A4800F02EF95C
:100D800042F21071002000F03BFB3B78653B112BD9
:100D90005BD801A252F823F0F90D0008ED0D000810
:100DA0004B0E00080B0E00084B0E00084B0E0008FF
:100DB0004B0E00084B0E00084B0E00084B0E0008AF
:100DC0004B0E0008250E00084B0E00084B0E0008C5
:100DD000FF0D00084B0E00084B0E0008E10D000847
:100DE00042F21071012000F00BFB2FE042F2107173
:100DF000002000F005FB29E000F0A8F926E02A48D1
:100E000000F0ECF800F022F920E0284800F0E6F8C5
:100E1000274800F0E3F8274800F0E0F8264800F003
:100E2000DDF813E03946254B0A22254803F047F93F
:100E30003B461A462349244803F0DEFF224800F0CF
:100E4000CDF8224800F0CAF800E000BF68233B70EC
:100E50001F4800F0C3F83946184B0122184803F028
:100E60002EF93B461A461749174803F0C5FF1648A6
:100E700000F0B4F889E700BF3D0200209C0100208B
:100E8000606B0008746B000800000020886B00088D
:100E90003C020020A46B00083E020020BC6B00084E
:100EA000D86B0008006C0008206C00083C6C00083F
:100EB000446C00085C6C0008C06C000820A10700AE
:100EC000A8010020246D000840020020286D0008C1
:100ED000546D0008B0B58CB000AF364B07F10C0470
:100EE0001D460FCD0FC495E80F0084E80F0007F1F1
:100EF0000C022023C021304802F075FE034687F81B
:100F00002F30002387F82E300023FB7297F82F3004
:100F1000002B02D0294800F08BF807F10C031A4689
:100F20002749284803F068FF264800F057F807F1E2
:100F30000B020123C021204802F055FE0346002B7E
:100F400003D0214800F074F819E0FB7A1B11DBB2E2
:100F500003F0070387F82E3097F82E301A461B4906
:100F6000184803F049FF174800F038F8FB7A1A4692
:100F70001749144803F040FF124800F02FF83A4692
:100F8000022317210C4802F02EFE0346002B03D04B
:100F9000104800F04DF808E03B781A460E49094821
:100FA00003F02AFF074800F019F800BF3037BD46AC
:100FB000B0BD00BF046E00089C010020706D0008E9
:100FC0008C6D000840020020906D0008B06D000894
:100FD000C06D0008D46D0008F46D000880B5ADF553
:100FE000007D00AF07F50073A3F5FE73186007F5E9
:100FF0000073A3F5FE7307F10C001A680A4903F0A9
:10100000FBFE07F10C031846FFF7BAF803469AB245
:1010100007F10C0141F28833044802F0CAFF00BF17
:1010200007F50077BD4680BD246E0008A8010020AA
:1010300080B582B000AF78607868FFF7CFFF00F02E
:1010400083FB00BF0837BD4680BD000090B5BFB030
:1010500000AF384B07F1D0040FCB84E80F00364BBC
:1010600007F1C0040FCB84E80F004FF47A73C7F880
:10107000E8304FF49673C7F8E4304FF4FA63C7F8DA
:10108000E0302E48FFF7AAFF0023C7F8F43043E012
:101090002B48FFF7A3FF0023C7F8F0302AE0002316
:1010A000C7F8EC300FE003F069FE0346D9B207F150
:1010B000D002D7F8EC3013440A461A70D7F8EC3057
:1010C0000133C7F8EC30D7F8EC300F2BEBDD07F12C
:1010D000D0023B4611461846FFF7FCFA07F1C00262
:1010E0003B4611461846FFF7B0FCD7F8F030013305
:1010F000C7F8F030D7F8F030D7F8E4209A42CED8CD
:101100001048FFF76BFFD7F8E00000F085FDD7F837
:10111000F4300133C7F8F430D7F8F430D7F8E820CA
:101120009A42B5D80848FFF759FF00BFFC37BD46C3
:1011300090BD00BFA46E0008B46E00082C6E0008BD
:10114000606E0008706E00087C6E0008F0B5D1B0CB
:101150000EAF002003F0E0FE0346184603F0E0FD6A
:101160009B4B07F1F4040FCB84E80F00994B07F178
:10117000E4040FCB84E80F009748FFF72FFF00230C
:1011800087F8073120E007F58271944B02229448DA
:1011900002F095FF97F8073107F1F4021A4407F5BA
:1011A00082739049184603F047FE07F582731A468A
:1011B0008D498E4803F020FE8C48FFF70FFF97F80B
:1011C0000731013387F8073197F807310F2BDAD948
:1011D00097F8F4309C4697F8F5309E4697F8F6302D
:1011E000184697F8F7301C4697F8F8301D4697F8E0
:1011F000F9301E4697F8FA30FB6197F8FB30BB6177
:1012000097F8FC307B6197F8FD303B6197F8FE3032
:10121000FB6097F8FF30BB6097F800317B6097F870
:101220000131194697F802311A4697F803310D93A8
:101230000C920B917A680A92BA680992FA6808923D
:101240003A6907927A690692BA690592FB69049332
:101250000396029501940090734662466449634880
:1012600003F0CAFD6148FFF7B9FE07F1F40207F188
:10127000240311461846FFF72DFA97F8E4309C46F0
:1012800097F8E5309E4697F8E630184697F8E7302D
:101290001C4697F8E8301D4697F8E9301E4697F847
:1012A000EA30FB6197F8EB30BB6197F8EC307B617B
:1012B00097F8ED303B6197F8EE30FB6097F8EF3030
:1012C000BB6097F8F0307B6097F8F130194697F8DB
:1012D000F2301A4697F8F3300D930C920B917A681E
:1012E0000A92BA680992FA6808923A6907927A698A
:1012F0000692BA690592FB690493039602950194DC
:101300000090734662463B49384803F075FD374804
:10131000FFF764FE07F1E40207F1240311461846C3
:10132000FFF793FB97F8E4309C4697F8E5309E462C
:1013300097F8E630184697F8E7301C4697F8E830FB
:101340001D4697F8E9301E4697F8EA30FB6197F89A
:10135000EB30BB6197F8EC307B6197F8ED303B6187
:1013600097F8EE30FB6097F8EF30BB6097F8F030FD
:101370007B6097F8F130194697F8F2301A4697F8E3
:10138000F3300D930C920B917A680A92BA68099225
:10139000FA6808923A6907927A690692BA690592E0
:1013A000FB6904930396029501940090734662468C
:1013B00011490E4803F020FD0C48FFF70FFE0F48BF
:1013C000FFF70CFE00BF07F58677BD46F0BD00BFF6
:1013D000A46E0008B46E0008C46E000820A10700C7
:1013E000A8010020286F0008246D0008400200209A
:1013F000306F0008786F0008C46F00081070000894
:1014000090B5C3B000AF07F58473A3F5827318607D
:1014100007F58473A3F58473196040F2395003F023
:101420007FFC434B07F1EC040FCB84E80F00404BEB
:1014300007F1DC040FCB84E80F003E4B07F1CC042E
:101440000FCB84E80F000023C7F8043160E00123CC
:10145000394A8021394802F067FB0346002B02D04D
:101460003748FFF7E5FDFFF735FD322000F0D4FBEC
:1014700000230022D121314802F056FB034687F8B1
:10148000FF3097F8FF30002B02D02E48FFF7D0FD39
:101490000023C7F800310FE003F070FC0346D9B217
:1014A00007F1DC02D7F8003113440A461A70D7F866
:1014B00000310133C7F80031D7F800310F2BEBDDD5
:1014C00007F58473A3F582731B68002B08D007F11E
:1014D000DC0207F10C0311461846FFF7FBF807E0A2
:1014E00007F1EC0207F10C0311461846FFF7F2F87A
:1014F00007F1CC0207F10C0311461846FFF7A5FAD5
:10150000012000F089FBD7F804310133C7F804311A
:1015100007F58473A3F58473D7F804211B689A42F6
:1015200095DB00BF00BF07F58677BD4690BD00BFC5
:10153000A46E0008B46E00083D0200209C0100204B
:10154000746B0008D86B000880B59AB000AF07F143
:10155000200348220021184603F0DAFB07F10803B4
:1015600000221A605A609A60DA601A615A611E4B52
:101570001B6823F4C0631C4A43F4806313601A4B56
:101580001B6803F4C0637B607B6820233B620123FC
:101590003B6400237B646023BB640023FB6407F18E
:1015A0002003184601F0C4F80346002B01D000F0D8
:1015B000CBF84F23BB600023FB6000233B6100237B
:1015C0007B610023BB610023FB6107F1080300215D
:1015D000184601F02FFC0346002B01D000F0B4F8B0
:1015E00000BF6837BD4680BD0004005880B500AF1D
:1015F000104B114A1A600F4B00225A600D4B00220B
:101600009A600C4B0D4ADA600A4B00225A61094B72
:1016100000225A62074B00229A62064B0022DA62CD
:10162000044800F028FC0346002B01D000F08CF8A1
:1016300000BF80BD900000200018005858710008BD
:1016400080B500AF064B10221A60054802F048F939
:101650000346002B01D000F077F800BF80BD00BF2B
:101660009C01002080B500AF224B234A1A60214B19
:101670004FF4E1325A601F4B00229A601D4B00224A
:10168000DA601C4B00221A611A4B0C225A61194B6A
:1016900000229A61174B0022DA61164B00221A626F
:1016A000144B00225A62134B00229A62114802F036
:1016B00030FC0346002B01D000F046F800210D4815
:1016C00003F025FA0346002B01D000F03DF800217D
:1016D000084803F05AFA0346002B01D000F034F812
:1016E000044803F0DCF90346002B01D000F02CF88D
:1016F00000BF80BDA80100200038014080B586B041
:1017000000AF3B1D00221A605A609A60DA601A61CD
:101710000220FFF7A8F9002220210A4800F046FD28
:1017200020237B600123BB600023FB6000233B611F
:101730003B1D1946034800F0D9FB00BF1837BD46D2
:1017400080BD00BF0004004880B400AF72B600BF87
:10175000FEE780B485B000AF78604FF0B043DA6C3C
:101760004FF0B0417B681343CB644FF0B043DA6C69
:101770007B681340FB60FB6800BF1437BD4680BC2C
:10178000704780B485B000AF78604FF0B0431A6DF9
:101790004FF0B0417B6813430B654FF0B0431A6DB7
:1017A0007B681340FB60FB6800BF1437BD4680BCFC
:1017B000704780B485B000AF78604FF0B0431A6EC8
:1017C0004FF0B0417B6813430B664FF0B0431A6E85
:1017D0007B681340FB60FB6800BF1437BD4680BCCC
:1017E000704780B485B000AF78604FF0B0435A6E58
:1017F0004FF0B0417B6813434B664FF0B0435A6ED5
:101800007B681340FB60FB6800BF1437BD4680BC9B
:10181000704780B400AF00BFBD4680BC7047000079
:1018200080B582B000AF78607B681B68054A934240
:1018300003D14FF40030FFF7A4FF00BF0837BD46C7
:1018400080BD00BF0018005880B582B000AF78603E
:101850000120FFF7C6FF00220021322000F0D7FA56
:10186000322000F0EEFA00BF0837BD4680BD000010
:1018700080B596B000AF786007F1440300221A608B
:101880005A609A60DA601A6107F10C03382200216D
:10189000184603F03DFA7B681B68164A934225D12F
:1018A0000123FB604FF440333B6107F10C03184602
:1018B00001F062FE0346002B01D0FFF745FF4FF415
:1018C0008040FFF776FF0220FFF743FFC0237B64D1
:1018D0000223BB640023FB6400233B6507237B6575
:1018E00007F144031946044800F000FB00BF5837D5
:1018F000BD4680BD003801400004004880B400AF00
:10190000FEE780B400AFFEE780B400AFFEE780B42E
:1019100000AFFEE780B400AFFEE780B400AF00BFC9
:10192000BD4680BC704780B400AF00BFBD4680BCE0
:10193000704780B400AF00BFBD4680BC704780B523
:1019400000AF00F04DF900BF80BD80B400AF0123AF
:101950001846BD4680BC704780B582B000AF786045
:10196000396003F09DF9034616221A604FF0FF33E9
:1019700018460837BD4680BD80B582B000AF78609C
:101980004FF0FF317868FFF7E7FFFEE780B586B0DC
:1019900000AFF860B9607A6000237B610AE0AFF3C2
:1019A00000800146BB685A1CBA60CAB21A707B69D3
:1019B00001337B617A697B689A42F0DB7B68184669
:1019C0001837BD4680BD80B586B000AFF860B960FD
:1019D0007A6000237B6109E0BB685A1CBA601B78FF
:1019E0001846AFF300807B6901337B617A697B68BD
:1019F0009A42F1DB7B6818461837BD4680BD80B43B
:101A000083B000AF78604FF0FF3318460C37BD4607
:101A100080BC704780B483B000AF786039603B68A9
:101A20004FF400525A60002318460C37BD4680BC64
:101A3000704780B483B000AF7860012318460C373C
:101A4000BD4680BC704780B485B000AFF860B96017
:101A50007A60002318461437BD4680BC70470000EA
:101A600080B586B000AF7860144A154BD31A7B61FD
:101A70007B693B61134B1B68002B02D1114B124A4F
:101A80001A60104B1A687B6813443A699A4207D26D
:101A900003F006F903460C221A604FF0FF3309E009
:101AA000084B1B68FB60074B1A687B681344054AA8
:101AB0001360FB6818461837BD4680BD0000012042
:101AC00000040000400300205803002080B400AF51
:101AD00000BFBD4680BC70470D488546FFF7F6FF46
:101AE0000C480D490D4A002302E0D458C450043379
:101AF000C4188C42F9D30A4A0A4C002301E013604F
:101B00000432A242FBD303F0D1F8FFF7B9F8FEE7A5
:101B1000000001200000002074000020A4740008D0
:101B20007400002058030020FEE7000080B582B05A
:101B300000AF0023FB71032000F05EF901F03EFBD3
:101B40000346094A13600F2000F010F80346002BEB
:101B500002D00123FB7101E0FFF75BFEFB79184621
:101B60000837BD4680BD00BF0400002080B584B0AA
:101B700000AF78600023FB73174B1B78002B24D039
:101B800001F01CFB0246144B1B7819464FF47A7384
:101B9000B3FBF1F3B2FBF3F3184600F060F9034630
:101BA000002B0FD17B680F2B09D8002279684FF0EA
:101BB000FF3000F02CF9094A7B68136007E001232D
:101BC000FB7304E00123FB7301E00123FB73FB7B48
:101BD00018461037BD4680BD0C00002008000020CC
:101BE00080B400AF054B1B781A46054B1B681344A5
:101BF000034A136000BFBD4680BC70470C00002044
:101C00004403002080B400AF024B1B681846BD4659
:101C100080BC70474403002080B584B000AF78607A
:101C2000FFF7F0FFB8607B68FB60FB68B3F1FF3F34
:101C300005D00A4B1B781A46FB681344FB6000BFB3
:101C4000FFF7E0FF0246BB68D31AFA689A42F7D85A
:101C500000BF00BF1037BD4680BD00BF0C00002094
:101C600080B485B000AF78607B6803F00703FB6049
:101C70000C4BDB68BB60BA684FF6FF031340BB60D8
:101C8000FB681A02BB68134343F0BF6343F400339D
:101C9000BB60044ABB68D36000BF1437BD4680BC3C
:101CA000704700BF00ED00E080B400AF044BDB687C
:101CB0001B0A03F007031846BD4680BC704700BFEF
:101CC00000ED00E080B483B000AF0346FB7197F9EC
:101CD0000730002B0BDBFB7903F01F02064997F955
:101CE00007305B09012000FA02F241F8232000BF0F
:101CF0000C37BD4680BC704700E100E080B483B083
:101D000000AF03463960FB7197F90730002B0ADBFF
:101D10003B68DAB20C4997F907301201D2B20B4492
:101D200083F800230AE03B68DAB20849FB7903F044
:101D30000F03043B1201D2B20B441A7600BF0C37DA
:101D4000BD4680BC704700BF00E100E000ED00E050
:101D500080B489B000AFF860B9607A60FB6803F0C6
:101D60000703FB61FB69C3F10703042B28BF0423AE
:101D7000BB61FB690433062B02D9FB69033B00E01E
:101D800000237B614FF0FF32BB6902FA03F3DA43B1
:101D9000BB681A407B699A404FF0FF317B6901FABA
:101DA00003F3D9437B680B40134318462437BD46E1
:101DB00080BC704780B582B000AF78607B68013B23
:101DC000B3F1807F01D301230FE00A4A7B68013B16
:101DD00053600F214FF0FF30FFF790FF054B0022BB
:101DE0009A60044B07221A60002318460837BD4644
:101DF00080BD00BF10E000E080B582B000AF786029
:101E00007868FFF72DFF00BF0837BD4680BD80B55D
:101E100086B000AF0346B9607A60FB73FFF744FFFA
:101E200078617A68B9687869FFF792FF024697F996
:101E30000F3011461846FFF761FF00BF1837BD4647
:101E400080BD80B582B000AF0346FB7197F90730C3
:101E50001846FFF737FF00BF0837BD4680BD80B585
:101E600082B000AF78607868FFF7A4FF0346184699
:101E70000837BD4680BD80B582B000AF78607B6812
:101E8000002B01D101232DE07B6893F85130DBB2A8
:101E9000002B06D17B68002283F850207868FFF77A
:101EA000BFFC7B681B681B6823F4A02323F0660338
:101EB0007A6851687A68926811437A685269114366
:101EC0007A6812680B4313607B6800225A657B684E
:101ED00000229A657B68012283F851207B680122E9
:101EE0005A64002318460837BD4680BD80B487B0C9
:101EF00000AF7860396000237B6140E13B681A687D
:101F000001217B6901FA03F31340FB60FB68002B9E
:101F100000F032813B685B6803F00303012B05D0BE
:101F20003B685B6803F00303022B30D17B689B683E
:101F30003B617B695B00032202FA03F3DB433A69EE
:101F400013403B613B68DA687B695B0002FA03F38C
:101F50003A6913433B617B683A699A607B685B68C6
:101F60003B6101227B6902FA03F3DB433A691340C8
:101F70003B613B685B681B0903F001027B6902FA65
:101F800003F33A6913433B617B683A695A603B68E3
:101F90005B6803F00303032B17D07B68DB683B61AE
:101FA0007B695B00032202FA03F3DB433A691340C7
:101FB0003B613B689A687B695B0002FA03F33A690C
:101FC00013433B617B683A69DA603B685B6803F006
:101FD0000303022B23D17B69DA087B68083253F8AC
:101FE00022303B617B6903F007039B000F2202FA5A
:101FF00003F3DB433A6913403B613B681A697B6931
:1020000003F007039B0002FA03F33A6913433B61B1
:102010007B69DA087B680832396943F822107B68EB
:102020001B683B617B695B00032202FA03F3DB431D
:102030003A6913403B613B685B6803F003027B69CC
:102040005B0002FA03F33A6913433B617B683A6928
:102050001A603B685B6803F44033002B00F08C800F
:102060004E4A7B699B08023352F823303B617B69FF
:1020700003F003039B00072202FA03F3DB433A69F0
:1020800013403B617B68B3F1904F0DD07B68444AAD
:10209000934207D07B68434A934201D1022304E074
:1020A000072302E0012300E000237A6902F0030223
:1020B000920093403A6913433B6138497B699B081E
:1020C00002333A6941F82320374B1B683B61FB68B8
:1020D000DB433A6913403B613B685B6803F4801360
:1020E000002B03D03A69FB6813433B612E4A3B69DE
:1020F00013602D4B5B683B61FB68DB433A6913401F
:102100003B613B685B6803F40013002B03D03A6922
:10211000FB6813433B61244A3B695360224BD3F86D
:1021200080303B61FB68DB433A6913403B613B68AD
:102130005B6803F48033002B03D03A69FB681343D8
:102140003B61194A3B69C2F88030174BD3F88430A1
:102150003B61FB68DB433A6913403B613B685B686A
:1021600003F40033002B03D03A69FB6813433B614F
:102170000D4A3B69C2F884307B6901337B613B685F
:102180001A687B6922FA03F3002B7FF4B7AE00BF15
:1021900000BF1C37BD4680BC704700BF0000014037
:1021A00000040048000800480008005880B483B0CC
:1021B00000AF78600B467B8013467B707B78002BEA
:1021C00003D07A887B689A6102E07A887B689A6299
:1021D00000BF0C37BD4680BC7047000080B400AF24
:1021E000044B1B68034A43F48073136000BFBD4671
:1021F00080BC70470004005880B400AF034B1B68DC
:1022000003F4C0631846BD4680BC70470004005804
:1022100080B400AF064B1B6803F48073B3F5807F76
:1022200001D1012300E000231846BD4680BC704761
:102230000004005880B400AF4FF0B0431B684FF06B
:10224000B04243F40013136000BFBD4680BC70472A
:1022500080B400AF4FF0B0431B684FF0B04223F49E
:102260000013136000BFBD4680BC704780B400AF50
:102270004FF0B0431B6803F48013B3F5801F01D106
:10228000012300E000231846BD4680BC704780B49F
:1022900000AF4FF0B0431B684FF0B04243F48033BF
:1022A000136000BFBD4680BC704780B400AF4FF0E4
:1022B000B0431B684FF0B04223F48033136000BF7B
:1022C000BD4680BC704780B400AF4FF0B0431B6880
:1022D00003F40033B3F5003F01D1012300E00023F4
:1022E0001846BD4680BC704780B400AF4FF0B04385
:1022F0001B684FF0B04243F48073136000BFBD46CB
:1023000080BC704780B400AF4FF0B0431B684FF003
:10231000B04223F48073136000BFBD4680BC704799
:1023200080B400AF4FF0B0431B6803F48063B3F593
:10233000806F01D1012300E000231846BD4680BC18
:10234000704780B483B000AF78604FF0B0435B68F3
:1023500023F0FE427B681B064FF0B04113434B60F5
:1023600000BF0C37BD4680BC704780B400AF4FF053
:10237000B043D3F8903003F00203022B01D10123C4
:1023800000E000231846BD4680BC704780B400AF13
:102390004FF0B043D3F894304FF0B04243F0010314
:1023A000C2F8943000BFBD4680BC704780B400AF17
:1023B0004FF0B043D3F894304FF0B04223F0010314
:1023C000C2F8943000BFBD4680BC704780B400AFF7
:1023D0004FF0B043D3F8943003F00203022B01D145
:1023E000012300E000231846BD4680BC704780B43E
:1023F00000AF4FF0B0431B684FF0B04243F0010311
:10240000136000BFBD4680BC704780B400AF4FF082
:10241000B0431B684FF0B04223F00103136000BFCC
:10242000BD4680BC704780B400AF4FF0B0431B681E
:1024300003F00203022B01D1012300E00023184620
:10244000BD4680BC704780B400AF4FF0B0431B68FE
:1024500003F00803082B01D1012300E000231846F4
:10246000BD4680BC704780B400AF4FF0B0431B68DE
:1024700003F0F0031846BD4680BC704780B400AF3F
:102480004FF0B043D3F8943003F470631846BD4660
:1024900080BC704780B483B000AF78604FF0B04329
:1024A0005B6823F47F427B681B024FF0B04113430B
:1024B0004B6000BF0C37BD4680BC704780B483B012
:1024C00000AF78604FF0B0439B6823F003024FF0F9
:1024D000B0417B6813438B6000BF0C37BD4680BCA6
:1024E000704780B400AF4FF0B0439B6803F00C031B
:1024F0001846BD4680BC704780B483B000AF78609A
:102500004FF0B0439B6823F0F0024FF0B0417B687E
:1025100013438B6000BF0C37BD4680BC704780B44E
:1025200083B000AF78604FF0B043D3F8083123F0A8
:102530000F027B681B094FF0B0411343C1F808310B
:1025400000BF0C37BD4680BC704780B483B000AF7D
:1025500078604FF0B0439B6823F4E0624FF0B041E5
:102560007B6813438B6000BF0C37BD4680BC70474F
:1025700080B483B000AF78604FF0B0439B6823F421
:1025800060524FF0B0417B6813438B6000BF0C3743
:10259000BD4680BC704780B400AF4FF0B0439B682D
:1025A00003F0F0031846BD4680BC704780B400AF0E
:1025B0004FF0B043D3F808311B0103F0F003184685
:1025C000BD4680BC704780B400AF4FF0B0439B68FD
:1025D00003F4E0631846BD4680BC704780B400AF8A
:1025E0004FF0B0439B6803F460531846BD4680BC6F
:1025F000704780B400AF4FF0B0431B684FF0B0425B
:1026000043F08073136000BFBD4680BC704780B448
:1026100000AF4FF0B0431B684FF0B04223F080731F
:10262000136000BFBD4680BC704780B400AF4FF060
:10263000B0431B6803F00073B3F1007F01D10123A5
:1026400000E000231846BD4680BC704780B400AF50
:102650004FF0B043DB681B0A03F07F031846BD460A
:1026600080BC704780B400AF4FF0B043DB6803F02C
:1026700060431846BD4680BC704780B400AF4FF041
:10268000B043DB6803F070031846BD4680BC70475A
:1026900080B400AF4FF0B043DB6803F0030318468B
:1026A000BD4680BC704780B400AF4FF0B0439B681C
:1026B00003F48033B3F5803F01D1012300E0002310
:1026C0001846BD4680BC704780B400AF4FF0B043A1
:1026D000D3F8083103F48033B3F5803F01D10123EF
:1026E00000E000231846BD4680BC704780B400AFB0
:1026F0004FF0B0439B6803F40033B3F5003F01D1C2
:10270000012300E000231846BD4680BC704780B41A
:1027100000AF4FF0B0439B6803F48023B3F5802FE4
:1027200001D1012300E000231846BD4680BC70475C
:1027300080B588B000AF78607B68002B01D10123A1
:102740006FE3FFF7CEFEF861FFF7A2FFB8617B6889
:102750001B6803F02003002B00F0C480FB69002BF2
:1027600005D0FB690C2B76D1BB69012B73D17B683B
:102770001B6A002B01D1012353E37B689A6A4FF057
:10278000B0431B6803F00803002B05D04FF0B043A3
:102790001B6803F0F00306E04FF0B043D3F8943029
:1027A0001B0903F0F003934222D27B689B6A184610
:1027B00000F03CFD0346002B01D0012331E34FF034
:1027C000B0431B684FF0B04243F0080313604FF072
:1027D000B0431B6823F0F0027B689B6A4FF0B04166
:1027E00013430B607B685B6A1846FFF753FE21E0DA
:1027F0004FF0B0431B684FF0B04243F00803136042
:102800004FF0B0431B6823F0F0027B689B6A4FF0E7
:10281000B04113430B607B685B6A1846FFF73AFED2
:102820007B689B6A184600F001FD0346002B01D02F
:102830000123F6E200F0C2FC0346A74A1360A74B4F
:102840001B681846FFF792F90346FB74FB7C002BCC
:1028500047D0FB7CE5E27B681B6A002B2CD0FFF79E
:10286000C6FDFFF7CFF9786108E0FFF7CBF9024624
:102870007B69D31A022B01D90323D2E2FFF7D3FDE0
:102880000346002BF1D04FF0B0431B684FF0B0422D
:1028900043F0080313604FF0B0431B6823F0F002CD
:1028A0007B689B6A4FF0B04113430B607B685B6AA7
:1028B0001846FFF7EFFD15E0FFF7A7FDFFF7A2F9B8
:1028C000786108E0FFF79EF902467B69D31A022B74
:1028D00001D90323A5E2FFF7A6FD0346002BF1D1A2
:1028E00000E000BF7B681B6803F00103002B58D099
:1028F000FB69082B05D0FB690C2B08D1BB69032BA6
:1029000005D17B685B68002B4BD1012389E24FF036
:10291000B0431B6823F480127B689B684FF0B04182
:1029200013430B607B685B68B3F5803F02D1FFF710
:10293000AEFC0DE07B685B68B3F5041F04D1FFF7C4
:1029400079FCFFF7A4FC03E0FFF7AFFCFFF780FC86
:102950007B685B68002B12D0FFF754F9786108E0C0
:10296000FFF750F902467B69D31A642B01D9032380
:1029700057E2FFF7A8FC0346002BF1D011E0FFF768
:1029800041F9786108E0FFF73DF902467B69D31A07
:10299000642B01D9032344E2FFF795FC0346002B87
:1029A000F1D17B681B6803F00203002B46D0FB6962
:1029B000042B05D0FB690C2B0ED1BB69022B0BD16C
:1029C0007B681B69002B01D101232AE27B685B69CC
:1029D0001846FFF7B6FC31E07B681B69002B19D065
:1029E000FFF782FCFFF70EF9786108E0FFF70AF9BC
:1029F00002467B69D31A022B01D9032311E2FFF7A8
:102A00008FFC0346002BF1D07B685B691846FFF70B
:102A100098FC13E0FFF776FCFFF7F4F8786108E024
:102A2000FFF7F0F802467B69D31A022B01D9032382
:102A3000F7E1FFF775FC0346002BF1D17B681B68BB
:102A400003F00803002B6ED07B689B69002B56D0E7
:102A50004FF0B043D3F89430FB607B68DA69FB68D1
:102A600003F010039A4231D0FB6803F00203002BFD
:102A700006D0FB6803F00103002B01D10123D0E154
:102A8000FB6803F00103002B13D0FFF78FFCFFF767
:102A9000B9F8786108E0FFF7B5F802467B69D31A08
:102AA000112B01D90323BCE1FFF790FC0346002B57
:102AB000F1D14FF0B043D3F8943023F010027B688B
:102AC000DB694FF0B0411343C1F89430FFF75EFC6F
:102AD000FFF798F878610CE004000020080000205F
:102AE000FFF790F802467B69D31A112B01D9032313
:102AF00097E1FFF76BFC0346002BF1D013E0FFF7E3
:102B000055FCFFF77FF8786108E0FFF77BF8024695
:102B10007B69D31A112B01D9032382E1FFF756FCFD
:102B20000346002BF1D17B681B6803F00403002BE4
:102B300000F0D880FFF76CFB0346002B13D1FFF7A2
:102B40004DFBFFF75FF8786108E0FFF75BF802469E
:102B50007B69D31A022B01D9032362E1FFF758FBEB
:102B60000346002BF1D07B68DB68002B7BD07B68B1
:102B7000DB68852B03D07B68DB68052B09D14FF020
:102B8000B043D3F890304FF0B04243F00403C2F8A2
:102B90009030FFF737F878614FF0B043D3F89030BA
:102BA0004FF0B04243F00103C2F890300AE0FFF763
:102BB00029F802467B69D31A41F28832934201D93F
:102BC00003232EE1FFF7D1FB0346002BEFD07B68F8
:102BD000DB68812B03D07B68DB68852B21D1FFF775
:102BE00011F878614FF0B043D3F890304FF0B04215
:102BF00043F08003C2F890300AE0FFF703F8024682
:102C00007B69D31A41F28832934201D9032308E148
:102C10004FF0B043D3F8903003F40063002BECD0B6
:102C200060E0FEF7EFFF78614FF0B043D3F89030EB
:102C30004FF0B04223F08003C2F890300AE0FEF774
:102C4000E1FF02467B69D31A41F28832934201D9EF
:102C50000323E6E04FF0B043D3F8903003F4006371
:102C6000002BECD13EE0FEF7CDFF78614FF0B04392
:102C7000D3F890304FF0B04223F08003C2F8903088
:102C80000AE0FEF7BFFF02467B69D31A41F28832A1
:102C9000934201D90323C4E04FF0B043D3F89030FE
:102CA00003F40063002BECD1FEF7ACFF78614FF02A
:102CB000B043D3F890304FF0B04223F00103C2F894
:102CC00090300AE0FEF79EFF02467B69D31A41F27C
:102CD0008832934201D90323A3E0FFF746FB034662
:102CE000002BEFD17B68DB6A002B00F09980FB6939
:102CF0000C2B6CD07B68DB6A022B4BD1FFF787FC77
:102D0000FEF780FF786108E0FEF77CFF02467B69F2
:102D1000D31A0A2B01D9032383E0FFF786FC03466D
:102D2000002BF1D14FF0B043DA68404B13407A6882
:102D3000116B7A68526B11437A68926B12021143DD
:102D40007A68D26B11437A68126C11437A68526CBC
:102D50000A434FF0B0411343CB60FFF74AFC4FF0FA
:102D6000B043DB684FF0B04243F08053D360FEF7CE
:102D700049FF786108E0FEF745FF02467B69D31AF8
:102D80000A2B01D903234CE0FFF74FFC0346002B2D
:102D9000F1D045E0FFF73BFCFEF734FF786108E037
:102DA000FEF730FF02467B69D31A0A2B01D90323B1
:102DB00037E0FFF73AFC0346002BF1D14FF0B04368
:102DC000DA684FF0B0411A4B1340CB6028E07B68C3
:102DD000DB6A012B01D1012323E04FF0B043DB6814
:102DE000BB61BB6903F003027B681B6B9A4215D180
:102DF000BB6903F070027B685B6B9A420ED1BB69C2
:102E000003F4FE427B689B6B1B029A4206D1BB69AE
:102E100003F060427B685B6C9A4201D0012300E0C2
:102E2000002318462037BD4680BD00BF8C80C111ED
:102E3000FCFFFEEE80B584B000AF786039607B683F
:102E4000002B01D101230FE1894B1B6803F007031D
:102E50003A689A421BD9864B1B6823F007028449C3
:102E60003B6813430B60FEF7CDFEF86008E0FEF709
:102E7000C9FE0246FB68D31A022B01D90323F3E0F3
:102E80007B4B1B6803F007033A689A42EFD17B68DB
:102E90001B6803F00203002B16D07B689B68184662
:102EA000FFF72AFBFEF7AEFEF86008E0FEF7AAFE89
:102EB0000246FB68D31A022B01D90323D4E0FFF7A3
:102EC000F2FB0346002BF1D07B681B6803F0400344
:102ED000002B16D07B685B691846FFF720FBFEF7D6
:102EE00091FEF86008E0FEF78DFE0246FB68D31AFB
:102EF000022B01D90323B7E0FFF7E6FB0346002BC3
:102F0000F1D07B681B6803F00403002B16D07B68AC
:102F1000DB681846FFF719FBFEF774FEF86008E05F
:102F2000FEF770FE0246FB68D31A022B01D9032379
:102F30009AE0FFF7DBFB0346002BF1D07B681B68B0
:102F400003F00803002B17D07B681B69DB001846D1
:102F5000FFF70EFBFEF756FEF86008E0FEF752FEA4
:102F60000246FB68D31A022B01D903237CE0FFF74A
:102F7000CEFB0346002BF1D07B681B6803F00103F6
:102F8000002B43D07B685B68022B06D1FFF79BF9CF
:102F90000346002B1ED1012366E07B685B68032B90
:102FA00006D1FFF742FB0346002B13D101235BE060
:102FB0007B685B68002B06D1FFF735FA0346002BD0
:102FC00008D1012350E0FFF7ABF90346002B01D1F4
:102FD000012349E07B685B681846FFF76FFAFEF74C
:102FE00011FEF8600AE0FEF70DFE0246FB68D31AF8
:102FF00041F28832934201D9032335E0FFF771FA99
:1030000002467B685B689B009A42ECD1184B1B68B8
:1030100003F007033A689A421BD2154B1B6823F052
:10302000070213493B6813430B60FEF7EBFDF860A2
:1030300008E0FEF7E7FD0246FB68D31A022B01D930
:10304000032311E00A4B1B6803F007033A689A4216
:10305000EFD100F0B3F80346064A1360064B1B6835
:103060001846FEF783FD034618461037BD4680BD5F
:1030700000400058040000200800002090B587B0F0
:1030800000AF00237B6100233B61FFF72AFAB860A1
:10309000FFF7FEFA7860BB68002B05D0BB680C2BED
:1030A00039D17B68012B36D1FFF7CDF90346002BD0
:1030B00015D1FFF7C8F90346012B06D1FFF7D3F965
:1030C00003461B0A03F00F0305E0FFF7D7F9034699
:1030D0001B0A03F00F03364A52F8233014E0FFF7BF
:1030E000B2F90346012B06D1FFF7BDF903461B09D0
:1030F00003F00F0305E0FFF7C1F903461B0903F0D6
:103100000F032B4A52F823303B61BB68002B15D1CB
:103110003B697B6112E0BB68042B02D1254B7B61CC
:103120000CE0BB68082B09D1FFF7A0F80346012B80
:1031300002D1204B7B6101E01F4B7B61FFF7D1F98E
:1031400003460C2B2FD1FFF7A3FA78607B68022B84
:1031500003D07B68032B03D00DE0164BFB600DE022
:10316000FFF784F80346012B02D1124BFB6005E008
:10317000114BFB6002E03B69FB6000BFFFF766FAA2
:103180000246FB6803FB02F4FFF777FA03461B09CC
:103190000133B4FBF3F4FFF765FA03465B0F013329
:1031A000B4FBF3F37B617B6918461C37BD4690BDC9
:1031B000C87100080024F4000048E80198B500AF89
:1031C000FFF75CFF0446FFF7E6F903461B0903F02F
:1031D0000F03034A52F82330B4FBF3F3184698BDAB
:1031E0006871000898B500AFFFF7E8FF0446FFF7E5
:1031F000EAF903461B0A034A52F8233024FA03F380
:10320000184698BDA871000898B500AFFFF7D6FF23
:103210000446FFF7E3F90346DB0A034A52F823307A
:1032200024FA03F3184698BDA871000890B585B03C
:1032300000AF78607B681B0903F00F03104A52F857
:103240002330FB60FFF7B2F903461B0903F00F03BD
:103250000C4A52F82330FA68B2FBF3F3BB60BB6848
:10326000094AA2FB03239C0CFEF7C6FF034619463E
:10327000204600F00BF8034618461437BD4690BDB3
:10328000C87100086871000883DE1B4380B58EB0EA
:1032900000AF786039603A4A07F1200392E80300F2
:1032A000186004331980374A07F1180392E80300C5
:1032B000186004331980344A07F10C0307CA83E805
:1032C000070000237B633B68B3F5007F1BD100231D
:1032D0003B6314E03B6B5B0038333B4433F8183CF2
:1032E0001A467B68934207D83B6B9B0038333B44BC
:1032F00053F82C3C7B6321E03B6B01333B633B6B1E
:10330000022BE7D91AE00023FB6214E0FB6A5B00A2
:1033100038333B4433F8203C1A467B68934207D845
:10332000FB6A9B0038333B4453F82C3C7B6305E03D
:10333000FB6A0133FB62FB6A022BE7D9134B1B6864
:1033400023F0070211497B6B13430B60FEF75AFC15
:10335000B86208E0FEF756FC0246BB6AD31A022B9D
:1033600001D9032307E0094B1B6803F007037A6BBD
:103370009A42EFD1002318463837BD4680BD00BFC2
:10338000247000082C7000083470000800400058B9
:1033900080B400AF4FF0B043D3F8903003F0020395
:1033A000022B01D1012300E000231846BD4680BC5A
:1033B000704780B483B000AF78604FF0B043D3F86B
:1033C00088207B681B0CDB431A407B689BB24FF064
:1033D000B0411343C1F8883000BF0C37BD4680BCF4
:1033E000704780B483B000AF78604FF0B043D3F83B
:1033F000883023F440724FF0B0417B681343C1F82A
:10340000883000BF0C37BD4680BC704780B483B0A5
:1034100000AF78604FF0B043D3F8883023F44062B7
:103420004FF0B0417B681343C1F8883000BF0C37C0
:10343000BD4680BC704780B483B000AF78604FF069
:10344000B043D3F888207B681B0903F47F23DB4358
:103450001A407B681B0103F47F234FF0B0411343F4
:10346000C1F8883000BF0C37BD4680BC704780B4BF
:1034700083B000AF78604FF0B043D3F888207B680A
:103480001B0C1B04DB431A407B681B044FF0B0414C
:103490001343C1F8883000BF0C37BD4680BC70476D
:1034A00080B483B000AF78604FF0B043D3F8883079
:1034B00023F040424FF0B0417B681343C1F888309D
:1034C00000BF0C37BD4680BC704780B483B000AFEE
:1034D00078604FF0B043D3F8883023F040524FF07B
:1034E000B0417B681343C1F8883000BF0C37BD463C
:1034F00080BC704780B483B000AF78604FF0B043B9
:10350000D3F8903023F440724FF0B0417B681343FE
:10351000C1F8903000BF0C37BD4680BC704780B406
:1035200000AF4FF0B043D3F8903003F44073184627
:10353000BD4680BC704780B400AF4FF0B043D3F8B5
:1035400090304FF0B04243F48033C2F8903000BF67
:10355000BD4680BC704780B400AF4FF0B043D3F895
:1035600090304FF0B04223F48033C2F8903000BF67
:10357000BD4680BC7047000080B586B000AF786063
:1035800000237B610023FB740023BB747B681B68F2
:1035900003F48033002B58D0FEF720FEFEF732FBF9
:1035A000F86009E0FEF72EFB0246FB68D31A022BF7
:1035B00002D90323FB7406E07B4B1B6803F4807382
:1035C000B3F5807FEED1FB7C002B3CD1FFF7A7FF4A
:1035D00002467B685B6B9A420FD04FF0B043D3F842
:1035E000903023F440737B61FFF7A5FFFFF7B3FF33
:1035F0004FF0B0427B69C2F890307B6903F0020360
:10360000002B14D0FEF7FEFAF8600BE0FEF7FAFA92
:103610000246FB68D31A41F28832934202D903234F
:10362000FB7404E0FFF7B4FE0346012BEED1FB7CF4
:10363000002B05D17B685B6B1846FFF75BFF04E04E
:10364000FB7CBB7401E0FB7CBB747B681B6803F0F4
:103650000103002B04D07B685B681846FFF7A9FEC6
:103660007B681B6803F00203002B04D07B689B6817
:103670001846FFF79EFE7B681B6803F02003002BB3
:1036800004D07B681B691846FFF7C0FE7B681B6887
:1036900003F40073002B04D07B681B6A1846FFF705
:1036A000E6FE7B681B6803F48063002B04D07B6814
:1036B0005B6A1846FFF7DBFE7B681B6803F4006358
:1036C000002B04D07B689B6A1846FFF7D0FE7B680E
:1036D0001B6803F04003002B04D07B685B6918462D
:1036E000FFF7A9FE7B681B6803F08003002B04D062
:1036F0007B689B691846FFF79EFE7B681B6803F496
:103700008073002B04D07B68DB691846FFF793FEBB
:103710007B681B6803F01003002B11D07B68DB680B
:103720001846FFF75EFE7B68DB68B3F5807F07D144
:103730004FF0B043DB684FF0B04243F08073D3608A
:103740007B681B6803F40043002B10D07B681B6B65
:103750001846FFF7A5FE7B681B6B002B07D14FF0C7
:10376000B043DB684FF0B04243F08073D3607B68B6
:103770001B6803F48043002B11D07B68DB6A18467A
:10378000FFF7A3FE7B68DB6AB3F1005F07D14FF060
:10379000B043DB684FF0B04243F48033D360BB7C6E
:1037A00018461837BD4680BD0004005880B483B069
:1037B00000AF7860064B9B6823F4006204497B6885
:1037C00013438B6000BF0C37BD4680BC704700BF01
:1037D0000004005880B400AF054BD3F89030044A81
:1037E00043F40043C2F8903000BFBD4680BC704730
:1037F0000004005880B400AF054BD3F89030044A61
:1038000023F40043C2F8903000BFBD4680BC70472F
:103810000004005880B400AF034B4FF400629A617B
:1038200000BFBD4680BC70470004005880B400AFA4
:10383000064B5B6903F00203022B01D1012300E078
:1038400000231846BD4680BC704700BF00040058E6
:1038500080B400AF064B5B6903F00403042B01D175
:10386000012300E000231846BD4680BC704700BF1E
:103870000004005880B400AF4FF0B043D3F8943048
:103880004FF0B04223F40043C2F8943000BFBD466D
:1038900080BC704780B400AF4FF0B043D3F8943091
:1038A00003F48043B3F5804F01D1012300E00023EE
:1038B0001846BD4680BC704780B483B000AF7860C6
:1038C000064BD3F8902005497B681343C1F890302C
:1038D00000BF0C37BD4680BC704700BF00080058D1
:1038E00080B584B000AF78607B68002B03D10123E2
:1038F000FB73FB7B52E00023FB737B689B79BB73FC
:10390000BB7B002B02D0BB7B032B09D17B68002241
:103910005A717868FDF798FF4FF48050FFF7CCFF9D
:10392000BB7B002B26D17B6802229A71FFF7A2FF96
:103930001C4B1A681346DB009B1A9B00DB0C6422AD
:1039400002FB03F3BB60BB68002B05D10123FB73B3
:103950007B6801229A6007E0BB68013BBB60FFF710
:1039600099FF0346002BEED1FFF734FF4FF40060C0
:10397000FFF71CFFFFF74EFFFB7B002B0AD17B6894
:103980001B68184600F084F97B6801221A717B6875
:1039900000229A607B6801229A71FB7B18461037DF
:1039A000BD4680BD0400002080B586B000AFF86041
:1039B0007A601A460B467B8113463B81FB689B79F4
:1039C000DBB2012B4AD1FB685B79012B01D10223C9
:1039D00045E0FB6801225A71FB6802229A71F8687F
:1039E00000F024FAFFF706FF0D21F86800F070F9E7
:1039F0007B891B0A9BB2DBB21946F86800F068F9B4
:103A00007B89DBB21946F86800F062F90023BB82BB
:103A10000AE0BB8A7A6813441B781946F86800F0FC
:103A200057F9BB8A0133BB82BA8A3B899A42F0D3E9
:103A3000FFF7D0FEF86800F01DFAFB689B68002BCA
:103A400002D00123FB7501E00023FB75FB68012216
:103A50009A71FB6800225A71FB7D00E00223184630
:103A60001837BD4680BD80B588B000AFF8607A6079
:103A70001A460B467B8113463B817B68BB61FB6822
:103A80009B79DBB2012B4AD1FB685B79012B01D119
:103A9000022345E0FB6801225A71F86800F0C6F97C
:103AA000FFF7A8FE1D21F86800F012F97B891B0AB8
:103AB0009BB2DBB21946F86800F00AF97B89DBB2E9
:103AC0001946F86800F004F90021F86800F000F9E0
:103AD0000023FB8209E0B969F86800F04FF9BB697F
:103AE0000133BB61FB8A0133FB82FA8A3B899A422C
:103AF000F1D3FFF76FFEF86800F0BCF9FB689B6834
:103B0000002B02D00123FB7701E00023FB77FB6849
:103B100001229A71FB6800225A71FB7F00E00223A8
:103B200018462037BD4680BD80B586B000AFF8602E
:103B30007A601A460B46FB7213463B81FB689B7901
:103B4000DBB2012B4AD1FB685B79012B01D1022347
:103B500045E0FB6801225A71F86800F067F9FB7ACA
:103B6000842B02D0FB7A942B03D1FB6801221A71BB
:103B700002E0FB6800221A71FFF73CFEFB7A19464F
:103B8000F86800F0A5F80023BB820AE0BB8A7A68D7
:103B900013441B781946F86800F09AF8BB8A013381
:103BA000BB82BA8A3B899A42F0D3FFF713FEFB7AB5
:103BB000842B02D0F86800F05DF9FB689B68002B4D
:103BC00002D00123FB7501E00023FB75FB68012295
:103BD0009A71FB6800225A71FB7D00E002231846AF
:103BE0001837BD4680BD80B588B000AFF8607A60F8
:103BF0001A460B46FB7213463B817B68BB61FB6830
:103C00009B79DBB2012B3DD1FB685B79012B01D1A4
:103C1000022338E0FB6801225A71F86800F006F9C7
:103C2000FFF7E8FDFB7A1946F86800F051F800212B
:103C3000F86800F04DF80023FB8209E0B969F868E4
:103C400000F09CF8BB690133BB61FB8A0133FB8246
:103C5000FA8A3B899A42F1D3FFF7BCFDF86800F07D
:103C600009F9FB689B68002B02D00123FB7701E078
:103C70000023FB77FB6801229A71FB6800225A71CE
:103C8000FB7F00E0022318462037BD4680BD0000C0
:103C900080B483B000AF78600C4B1B680B4A23F0F4
:103CA00040031360094A7B6843F441731360074B78
:103CB0004FF4B8525A60054B1B68044A43F0400366
:103CC000136000BF0C37BD4680BC70470000015830
:103CD00080B487B000AF78600B46FB700023FB75A3
:103CE000234B1A681346DB009B1A9B00DB0C6422F3
:103CF00002FB03F3FB60FB68002B05D10123FB757E
:103D00007B6801229A6008E0FB68013BFB60194B6D
:103D10009B6803F00203022BEDD1174B3B613B691B
:103D2000FA781A70124B1A681346DB009B1A9B0034
:103D3000DB0C642202FB03F3FB60FB68002B05D164
:103D40000123FB757B6801229A6008E0FB68013B58
:103D5000FB60084B9B6803F00103012BEDD1054B81
:103D6000DB68FB7D18461C37BD4680BC704700BF32
:103D700004000020000001580C00015880B487B0F6
:103D800000AF786039600023FB75254B1A68134635
:103D9000DB009B1A9B00DB0C642202FB03F3FB603D
:103DA000FB68002B05D10123FB757B6801229A601B
:103DB00008E0FB68013BFB601A4B9B6803F00203C1
:103DC000022BEDD1184B3B613B69FF221A70144B5B
:103DD0001A681346DB009B1A9B00DB0C642202FB73
:103DE00003F3FB60FB68002B05D10123FB757B68A7
:103DF00001229A6008E0FB68013BFB60094B9B686D
:103E000003F00103012BEDD1064BDB68DAB23B680E
:103E10001A70FB7D18461C37BD4680BC704700BF3A
:103E200004000020000001580C00015880B584B047
:103E300000AF78607B681B79012B11D10C4B1A689D
:103E400013465B001344DB001B0CFB60FFF7D2FC46
:103E5000FB68013BFB60FB68002BF9D1FFF7BAFC64
:103E6000786800F007F8034618461037BD4680BD55
:103E70000400002080B586B000AF78600023FB7599
:103E8000124B1A6813465B001344DB001B0D6422BF
:103E900002FB03F3FB60FFF7DBFC3861FB68002BE0
:103EA00005D10123FB757B6802229A6009E0FB685B
:103EB000013BFB60FFF7BAFC02463B691340012B54
:103EC000E9D0FB7D18461837BD4680BD04000020B0
:103ED00080B483B000AF78604FF0B043D3F888204F
:103EE0007B681A407B681B04134318460C37BD4699
:103EF00080BC704780B483B000AF78604FF0B043AF
:103F0000D3F888207B68134018460C37BD4680BC28
:103F1000704780B582B000AF78607B68002B01D11C
:103F2000012342E07B68D3F88830002B06D17B6800
:103F3000002283F884207868FDF79AFC7B682422AD
:103F4000C3F888207B681B681A687B681B6822F0AE
:103F500001021A60786800F077F90346012B01D15D
:103F6000012322E07B689B6A002B02D0786800F076
:103F7000DFFB7B681B685A687B681B6822F49042F1
:103F80005A607B681B689A687B681B6822F02A026B
:103F90009A607B681B681A687B681B6842F00102A4
:103FA0001A60786800F065FC034618460837BD467D
:103FB00080BD80B58AB002AFF860B9603B6013463F
:103FC000FB80FB68D3F88830202B73D1BB68002BB3
:103FD00002D0FB88002B01D101236CE0FB6800229A
:103FE000C3F89020FB682122C3F88820FDF70AFE61
:103FF0007861FB68FA88A3F85420FB68FA88A3F874
:104000005620FB689B68B3F5805F08D1FB681B698D
:10401000002B04D10023FB61BB68BB6103E0BB68DC
:10402000FB610023BB612CE03B6800937B690022AD
:104030008021F86800F06BFC0346002B01D00323BD
:1040400039E0FB69002B0BD1BB691B881A46FB6862
:104050001B68C2F308029A62BB690233BB6107E0C6
:10406000FB691A78FB681B689A62FB690133FB6184
:10407000FB68B3F856309BB2013B9AB2FB68A3F8D9
:104080005620FB68B3F856309BB2002BCCD13B686E
:1040900000937B6900224021F86800F038FC034659
:1040A000002B01D0032306E0FB682022C3F8882000
:1040B000002300E0022318462037BD4680BD80B5AE
:1040C0008AB002AFF860B9603B601346FB80FB68C2
:1040D000D3F88C30202B40F0B180BB68002B02D08D
:1040E000FB88002B01D10123A9E0FB680022C3F863
:1040F0009020FB682222C3F88C20FB680022DA663D
:10410000FDF780FD7861FB68FA88A3F85C20FB6806
:10411000FA88A3F85E20FB689B68B3F5805F0ED138
:10412000FB681B69002B05D1FB6840F2FF12A3F866
:1041300060202DE0FB68FF22A3F8602028E0FB68E8
:104140009B68002B0DD1FB681B69002B04D1FB6819
:10415000FF22A3F860201BE0FB687F22A3F8602009
:1041600016E0FB689B68B3F1805F0DD1FB681B69AB
:10417000002B04D1FB687F22A3F8602008E0FB68D5
:104180003F22A3F8602003E0FB680022A3F8602030
:10419000FB68B3F860307B82FB689B68B3F5805F97
:1041A00008D1FB681B69002B04D10023FB61BB68AD
:1041B000BB6103E0BB68FB610023BB6132E03B688D
:1041C00000937B6900222021F86800F0A0FB0346E1
:1041D000002B01D0032332E0FB69002B0CD1FB68DC
:1041E0001B685B6A9AB27B8A13409AB2BB691A80D9
:1041F000BB690233BB610CE0FB681B685B6ADAB227
:104200007B8ADBB21340DAB2FB691A70FB690133B7
:10421000FB61FB68B3F85E309BB2013B9AB2FB686E
:10422000A3F85E20FB68B3F85E309BB2002BC6D1CA
:10423000FB682022C3F88C20002300E002231846EC
:104240002037BD4680BD00002DE9B04F8CB000AFD7
:104250007861002387F82A307B699A687B691B693B
:104260001A437B695B691A437B69DB691343FB6211
:104270007B691B681A68944B13407A691268F96A63
:104280000B4313607B691B685B6823F440517B69B7
:10429000DA687B691B680A435A607B699B69FB6229
:1042A0007B691B68894A934204D07B691B6AFA6A5E
:1042B0001343FB627B691B689B6823F06E4323F406
:1042C00030637A691268F96A0B4393607B691B68F3
:1042D000DB6A23F00F017B695A6A7B691B680A431A
:1042E000DA627B691B687A4A934227D10320FFF781
:1042F000EFFD0346A3F54033032B1BD801A252F870
:1043000023F000BF15430008254300081D430008A3
:104310002D430008012387F82B3080E0022387F823
:104320002B307CE0042387F82B3078E0082387F8D3
:104330002B3074E0102387F82B3070E07B691B680A
:10434000644A934238D10C20FFF7C2FD0346A3F51F
:1043500040230C2B2CD801A252F823F091430008E3
:10436000B1430008B1430008B1430008A14300086D
:10437000B1430008B1430008B14300089943000865
:10438000B1430008B1430008B1430008A943000845
:10439000002387F82B3042E0022387F82B303EE0E1
:1043A000042387F82B303AE0082387F82B3036E0D7
:1043B000102387F82B3032E07B691B68434A934215
:1043C0002AD14FF44060FFF795FD0346B3F5406FE7
:1043D0001AD0B3F5406F1BD8B3F5006F0CD0B3F50E
:1043E000006F15D8002B03D0B3F5806F08D00FE015
:1043F000002387F82B3012E0022387F82B300EE0E1
:10440000042387F82B300AE0082387F82B3006E0D6
:10441000102387F82B3002E0102387F82B307B69BC
:104420001B682A4A934240F0A48097F82B30082B4F
:1044300023D801A252F823F05D4400087B44000811
:10444000654400087B4400086B4400087B44000876
:104450007B4400087B44000873440008FEF7C2FE5A
:10446000786210E01C4B7B620DE0FEF707FE78627D
:1044700009E04FF400437B6205E000237B620123E7
:1044800087F82A3000BF7B6A002B00F037817B69F8
:104490005B6A124A32F813301A467B6AB3FBF2F3B6
:1044A000BB617B695A6813465B001344BA699A4240
:1044B00005D37B695B681B03BA699A4210D9012353
:1044C00087F82A301AE100BFF369FFCF008000406F
:1044D00000380140004400400024F4000872000845
:1044E0007B6A0022BB60FA607B695B6A8E4A32F8A5
:1044F00013309BB200223B607A60D7E90023D7E9F2
:104500000201FBF795FE02460B46104619464FF096
:1045100000024FF000030B0243EA106302027969C4
:104520004968490800200C46054612EB040843EB95
:1045300005097B695B6800229A46934652465B46B2
:1045400040464946FBF774FE02460B4613463B6263
:104550003B6AB3F5407F08D33B6AB3F5801F04D2B2
:104560007B691B683A6ADA60C8E0012387F82A3061
:10457000C4E07B69DB69B3F5004F67D197F82B3056
:10458000082B28D801A252F823F000BFB14500083B
:10459000B9450008C1450008D7450008C7450008CF
:1045A000D7450008D7450008D7450008CF45000883
:1045B000FEF718FE786214E0FEF726FE786210E03F
:1045C0005A4B7B620DE0FEF759FD786209E04FF42B
:1045D00000437B6205E000237B62012387F82A30D9
:1045E00000BF7B6A002B00F089807B695B6A4E4AC2
:1045F00032F813301A467B6AB3FBF2F35A007B6938
:104600005B685B081A447B695B68B2FBF3F33B624F
:104610003B6A0F2B16D93B6AB3F5803F12D23B6A37
:104620009BB223F00F03FB833B6A5B089BB203F052
:1046300007039AB2FB8B1343FB837B691B68FA8BDE
:10464000DA605BE0012387F82A3057E097F82B30D7
:10465000082B28D801A252F823F000BF8146000899
:104660008946000891460008A746000897460008BA
:10467000A7460008A7460008A74600089F4600086E
:10468000FEF7B0FD786214E0FEF7BEFD786210E040
:10469000264B7B620DE0FEF7F1FC786209E04FF4F7
:1046A00000437B6205E000237B62012387F82A3008
:1046B00000BF7B6A002B21D07B695B6A1A4A32F803
:1046C00013301A467B6AB3FBF2F27B695B685B08C6
:1046D0001A447B695B68B2FBF3F33B623B6A0F2BC6
:1046E00009D93B6AB3F5803F05D23B6A9AB27B6930
:1046F0001B68DA6002E0012387F82A307B69012217
:10470000A3F86A207B690122A3F868207B69002254
:104710005A677B6900229A6797F82A301846303723
:10472000BD46BDE8B08F00BF087200080024F40049
:1047300080B483B000AF78607B689B6A03F00103AC
:10474000002B0AD07B681B685B6823F400317B6810
:10475000DA6A7B681B680A435A607B689B6A03F0CD
:104760000203002B0AD07B681B685B6823F480314E
:104770007B681A6B7B681B680A435A607B689B6A7C
:1047800003F00403002B0AD07B681B685B6823F4EA
:1047900080217B685A6B7B681B680A435A607B6880
:1047A0009B6A03F00803002B0AD07B681B685B68D8
:1047B00023F400417B689A6B7B681B680A435A604C
:1047C0007B689B6A03F01003002B0AD07B681B6890
:1047D0009B6823F480517B68DA6B7B681B680A4313
:1047E0009A607B689B6A03F02003002B0AD07B68E9
:1047F0001B689B6823F400517B681A6C7B681B68FC
:104800000A439A607B689B6A03F04003002B1AD02E
:104810007B681B685B6823F480117B685A6C7B683B
:104820001B680A435A607B685B6CB3F5801F0AD132
:104830007B681B685B6823F4C0017B689A6C7B68AB
:104840001B680A435A607B689B6A03F08003002B55
:104850000AD07B681B685B6823F400217B68DA6CF4
:104860007B681B680A435A6000BF0C37BD4680BC9A
:10487000704780B586B002AF78607B680022C3F8CD
:104880009020FDF7BFF9F8607B681B681B6803F098
:104890000803082B0ED16FF07E430093FB680022C3
:1048A0004FF40011786800F032F80346002B01D075
:1048B000032328E07B681B681B6803F00403042BB8
:1048C0000ED16FF07E430093FB6800224FF480010D
:1048D000786800F01CF80346002B01D0032312E097
:1048E0007B682022C3F888207B682022C3F88C20B4
:1048F0007B680022DA667B6800221A677B680022E8
:1049000083F88420002318461037BD4680BD80B54B
:104910009CB000AFF860B9603B601346FB71A9E042
:10492000BB6FB3F1FF3F00F0A580FDF76BF90246C6
:104930003B68D31ABA6F9A4202D3BB6F002B40D1A7
:10494000FB681B683B653B6D53E8003FFB64FB6CF9
:1049500023F4D0737B66FB681B681A467B6EFB658D
:10496000BA65B96DFA6D41E800237B657B6D002B5C
:10497000E6D1FB681B680833FB63FB6B53E8003F21
:10498000BB63BB6B23F001033B66FB681B6808330A
:104990003A6EBA647B64796CBA6C41E800233B647C
:1049A0003B6C002BE5D1FB682022C3F88820FB6814
:1049B0002022C3F88C20FB68002283F88420032384
:1049C00069E0FB681B681B6803F00403002B51D0EF
:1049D000FB681B68DB6903F40063B3F5006F49D122
:1049E000FB681B684FF400621A62FB681B68BB62BD
:1049F000BB6A53E8003F7B627B6A23F4D073FB669B
:104A0000FB681B681A46FB6E7B633A63396B7A6BF3
:104A100041E80023FB62FB6A002BE6D1FB681B68C0
:104A200008337B617B6953E8003F3B613B6923F0BE
:104A30000103BB66FB681B680833BA6E3A62FB6110
:104A4000F9693A6A41E80023BB61BB69002BE5D1F3
:104A5000FB682022C3F88820FB682022C3F88C2042
:104A6000FB682022C3F89020FB68002283F8842092
:104A7000032310E0FB681B68DA69BB681340BA685F
:104A80009A420CBF01230023DBB21A46FB799A42FB
:104A90003FF446AF002318467037BD4680BD80B452
:104AA00085B000AF78607B6893F88430012B01D12A
:104AB000022327E07B68012283F884207B6824227C
:104AC000C3F888207B681B681B68FB607B681B68D9
:104AD0001A687B681B6822F001021A60FB6823F0E9
:104AE0000053FB607B6800225A667B681B68FA688B
:104AF0001A607B682022C3F888207B68002283F834
:104B00008420002318461437BD4680BC704780B50A
:104B100084B000AF786039607B6893F88430012BF3
:104B200001D102232DE07B68012283F884207B6879
:104B30002422C3F888207B681B681B68FB607B68A5
:104B40001B681A687B681B6822F001021A607B6888
:104B50001B689B6823F060417B681B683A680A43C6
:104B60009A60786800F050F87B681B68FA681A60F1
:104B70007B682022C3F888207B68002283F8842089
:104B8000002318461037BD4680BD80B584B000AF05
:104B9000786039607B6893F88430012B01D102235F
:104BA0002DE07B68012283F884207B682422C3F8EF
:104BB00088207B681B681B68FB607B681B681A6821
:104BC0007B681B6822F001021A607B681B689B6887
:104BD00023F060617B681B683A680A439A607868D2
:104BE00000F012F87B681B68FA681A607B68202264
:104BF000C3F888207B68002283F8842000231846AD
:104C00001037BD4680BD000080B485B000AF78602D
:104C10007B685B6E002B08D17B680122A3F86A20B9
:104C20007B680122A3F8682031E00823FB73082386
:104C3000BB737B681B689B685B0EDBB203F00703EA
:104C40007B737B681B689B685B0FDBB203F0070319
:104C50003B73BB7B3A7B10498A5C02FB03F33A7BD4
:104C60000E498A5C93FBF2F39AB27B68A3F86A2040
:104C7000FB7B7A7B08498A5C02FB03F37A7B07495A
:104C80008A5C93FBF2F39AB27B68A3F8682000BFBA
:104C90001437BD4680BC7047207200082872000897
:104CA000014B1868704700BF1000002070B50D4D13
:104CB0000D4C641BA4100026A64209D10B4D0C4CD0
:104CC00001F042FF641BA4100026A64205D170BD6E
:104CD00055F8043B98470136EEE755F8043B9847F2
:104CE0000136F2E79C7400089C7400089C7400086C
:104CF000A07400080A44914200F1FF3300D17047CC
:104D000010B511F8014B03F8014F9142F9D110BDD4
:104D100002440346934200D1704703F8011BF9E7B0
:104D200038B5104B1D68AB6B0446B3B9182000F0C2
:104D300083F90246A86320B90B4B0C48422100F0CE
:104D400017F90B490B4BC0E900130B4B83600B2386
:104D5000838100210120C2E90401AB6B00221C61A8
:104D60005A6138BD10000020347200084B720008F0
:104D70000E33CDAB34126DE6ECDE0500164B10B5EC
:104D80001C68A36BB3B9182000F056F90246A06363
:104D900020B9124B12484E2100F0EAF81149124B8B
:104DA000C0E90013114B83600B2383810021012094
:104DB000C2E90401A46B0E4A206963690D494243AC
:104DC00001FB0322A0FB0101431C42EB0100C4E9EB
:104DD000043020F0004010BD1000002034720008A4
:104DE0004B7200080E33CDAB34126DE6ECDE0500DD
:104DF0002DF451582D7F954C0EB400B59CB01DABD1
:104E0000029006906FF0004109480791049109490A
:104E100053F8042B05910068019302A900F04EFAA3
:104E2000029B00221A701CB05DF804EB03B07047BF
:104E3000100000200802FFFF0EB430B59CB01FAC7C
:104E40004FF4017254F8045BADF814200290069000
:104E5000FBF796F90B4B039007900B930A480194CC
:104E600000230F9314934FF6FF73ADF816302A46C4
:104E7000234602A9006800F07BFB1CB0BDE830406F
:104E800003B07047AF4E00081000002010B50C466C
:104E9000B1F90E1001F022F90028ABBF636DA389B0
:104EA0001B1823F48053ACBF6365A38110BD0020A1
:104EB00070472DE9F0411F468B89DB0505460C46FE
:104EC000164605D5B1F90E100223002200F0A2F813
:104ED000A389B4F90E1023F48053A38132463B46D4
:104EE0002846BDE8F04100F031B810B50C46B1F9E4
:104EF0000E1000F08FF8431CA38915BF606523F4E2
:104F0000805343F48053A38118BFA38110BDB1F92E
:104F10000E1000F04BB800001FB50B4B04460022EA
:104F20001868694600F064F8002805DA4FF0FF328F
:104F30004FF0FF33CDE90023DDE900010CB1C4E9F6
:104F4000000104B010BD00BF1000002038B5074DAF
:104F500004460846114600222A601A46FCF733FD33
:104F6000431C02D12B6803B1236038BD50030020DD
:104F70001FB514461A46094B1B680546D8684CB144
:104F8000074B0091CDE9013406492B4600F01EF88D
:104F900001F0EAFA044B1C46F3E700BF10000020C2
:104FA000A6720008B3720008E172000838B5064D19
:104FB0000023044608462B60FCF721FD431C02D168
:104FC0002B6803B1236038BD500300200EB403B535
:104FD000014603AB054853F8042B0068019300F029
:104FE00067FC02B05DF804EB03B0704710000020CE
:104FF00038B5074D00230446084611462B6001F0E2
:105000009BFD431C02D12B6803B1236038BD00BF58
:105010005003002038B5074D0446084611460022CB
:105020002A601A46FCF70FFD431C02D12B6803B11E
:10503000236038BD50030020024B0146186800F081
:105040006DB800BF1000002038B50546002941D0DA
:1050500051F8043C0C1F002BB8BFE41801F0C2FC4F
:105060001D4A136833B9636014602846BDE83840B0
:1050700001F0BEBCA34208D9206821188B4201BFB1
:1050800019685B6809182160EDE71A465B680BB187
:10509000A342FAD911685018A0420BD120680144EC
:1050A000501883421160E0D118685B685360014476
:1050B0001160DAE702D90C232B60D6E720682118AB
:1050C0008B4204BF19685B68636004BF09182160E4
:1050D0005460CAE738BD00BF4803002070B50E4ECB
:1050E0000C463168054611B901F00AF830602146D6
:1050F000284601F005F8431C0AD0C41C24F0030420
:10510000A04207D0211A284600F0FAFF013001D151
:105110004FF0FF34204670BD4C0300202DE9F041D4
:10512000CD1C25F0030508350C2D38BF0C25002DAE
:10513000074601DBA94205D90C233B600026304617
:10514000BDE8F0812E4E01F04DFC33681C4634BBA7
:1051500029463846FFF7C2FF431C04464DD1346848
:105160002646002E40D123683146384604EB03081A
:1051700000F0C6FF80453AD1216803356D1A25F04D
:10518000030508350C2D38BF0C2529463846FFF796
:10519000A5FF01302BD023682B4423600EE022684A
:1051A000521B1ED40B2A16D96119A342256018BFC1
:1051B0005960636808BF316062514B60384604F142
:1051C0000B0601F015FC26F00706231DF21AB6D0D7
:1051D0009B1BA350B3E76268A3420CBF32605A60C6
:1051E000ECE723466468B2E734467668B9E70C23F7
:1051F0003B60384601F0FCFBA1E72560DEE700BF1D
:10520000480300202DE9F0478E689E4282460C46F6
:1052100090461F4638D88A8912F4906F32D025689C
:105220000969A5EB0109656905EB450505EBD57530
:1052300001334B446D109D4238BF1D46530531D597
:105240002946FFF76BFF064650B90C23CAF8003019
:10525000A38943F04003A3814FF0FF30BDE8F087FE
:1052600021694A46FFF746FDA38923F4906343F082
:105270008003A381266165614E44A5EB0905266084
:10528000A5603E46BE4200D93E46206832464146B1
:1052900001F08EFBA3689B1BA3602368334423604B
:1052A0000020DBE72A4601F0A9FB06460028E1D1F1
:1052B00021695046FFF7C8FEC7E700002DE9F04F0F
:1052C00098468B891B069DB007460D4614460ED5A1
:1052D0000B6963B94021FFF721FF2860286120B9DD
:1052E0000C233B604FF0FF30D1E040236B61002383
:1052F000099320238DF82930CDF80C803023DFF876
:10530000A8818DF82A304FF0010923469A4613F8F8
:10531000012B0AB1252AF9D1BAEB040B0BD05B465D
:10532000224629463846FFF76DFF013000F0AA807B
:10533000099A5A4409929AF80030002B00F0A28092
:1053400000234FF0FF32CDE905230AF1010A04934F
:1053500007938DF853301A935446052214F8011B15
:105360005148FAF715FF049AD8B9D00644BF202354
:105370008DF85330110744BF2B238DF853309AF822
:1053800000302A2B15D0079A544600204FF00A0C03
:10539000214611F8013B303B092B4ED9B0B10792A1
:1053A00014E0A0EB080309FA03F313430493A246A5
:1053B000D2E7039B191D1B680391002BBBBF5B4207
:1053C00042F0020207930793B8BF049223782E2B72
:1053D0000CD163782A2B35D1039B1A1D1B680392CD
:1053E000002BB8BF4FF0FF3302340593DFF8BCA0A9
:1053F000217803225046FAF7CBFE40B14023A0EBC0
:105400000A0003FA00F0049B03430134049314F8E8
:10541000011B27488DF828100622FAF7B9FE00284C
:1054200038D0244B1BBB039B073323F007030833FF
:105430000393099B3344099367E70CFB02320C4644
:105440000120A5E700230134059319464FF00A0C0B
:10545000204610F8012B303A092A03D9002BC5D079
:105460000591C3E70CFB012104460123F0E703ABE0
:1054700000932A46104B04A93846AFF30080421C23
:105480000646D6D1AB895B063FF52CAF09981DB017
:10549000BDE8F08F03AB00932A46074B04A93846BA
:1054A00000F0A4FBEBE700BFE2720008E87200081E
:1054B000EC720008000000000552000838B54B1CD3
:1054C000144603D14FF0FF35284638BD938923F0A9
:1054D00020039381636B5268CDB28BB1A36B93426F
:1054E00008DD23685A1E226003F8015C63680133FB
:1054F0006360E9E7214600F03DFF0028F1D0E1E7D5
:105500002169236851B1994208D213F8011CA942BC
:1055100004D1013B013223606260D5E7C4E90F3258
:1055200004F1440363630323A363234603F8465F44
:1055300023600123DCE710B50C46496B69B104F127
:105540004403994201D0FFF77FFD236C6360002084
:10555000606313B1E36B236010BD236923600023F4
:105560006360A38943F02003A3814FF0FF30F3E78A
:105570002DE9F0470C46ADF5227D0021CDE944111F
:10558000A649A0910DF10408A549A64FDFF898920D
:10559000CDF818810646A19100931378002B00F0F6
:1055A0005A81D95D11F0080102F1010519D0636833
:1055B000002B0FDD23681A78BA5C120701D42A4643
:1055C000EBE7459A0132459262680133013A626025
:1055D0002360ECE7A19B2146304698470028E9D09C
:1055E000EDE7252B12D09A466368002B40F391809B
:1055F00022681378534540F02E816368013B636055
:10560000459B0132013322604593D8E74191439194
:1056100053782A2B02BF1023951C41930A22AA46D5
:105620001AF8011BA1F13003092B1DD97E48032272
:10563000FAF7AEFD40B10123A0EB090003FA00F038
:10564000419B18434190554615F8013B782B06D8ED
:10565000572B10D8252BC6D056D8002B64D0032347
:1056600047930A23429371E0439B02FB03113039B5
:1056700043915546D3E7A3F15802202AEFD801A160
:1056800051F822F0375700085F5600085F560008AF
:10569000955700085F5600085F5600085F560008DF
:1056A0005F5600085F5600085F5600085F56000806
:1056B000AB570008815700080F5700080F57000824
:1056C0000F5700085F560008855700085F5600080E
:1056D0005F5600085F5600085F560008BB57000879
:1056E0008D5700082F5700085F5600085F560008C6
:1056F000B75700085F560008815700085F5600083A
:105700005F56000837570008453B022BA7D80523F2
:105710001BE0A19B21463046984700283FF468AF24
:105720004498002840F08D804FF0FF308FE0419A80
:1057300042F020024192419A42F4007241921022BA
:105740006F2B429234BF0323042347936368002BDB
:1057500042DD419B590604D423681A78BA5C1207CB
:1057600041D4479B022B50DC6B46224641A9304670
:1057700000F062FB01286ED002287FF420AFCFE753
:105780000A22DDE7002342930323DEE70823429346
:105790000423DAE72946404600F0C2FC419B43F06F
:1057A0004003419305460123CFE7419B43F040036B
:1057B00041930023C9E70223C7E74198C3063FF599
:1057C000FEAE009B459A191D00911B6810F0010F59
:1057D00014BF1A801A60F2E6A19B21463046984712
:1057E0000028B6D09CE7459A013245926268013A9A
:1057F000002A626002DD01332360ADE7A19B2146F0
:10580000304698470028A7D08AE7042B0EDC6B4669
:10581000224641A9304600F069FBABE7BD540008C1
:105820003755000831730008E87200080B4B002B55
:105830003FF4C5AE6B46224641A93046AFF3008027
:1058400098E7A38913F0400F18BF4FF0FF300DF514
:10585000227DBDE8F0874498F9E700BF0000000012
:105860009368013B002B10B4936007DA9469A3425C
:1058700001DB0A2902D110BC00F0B6BD1368581C28
:1058800010601970084610BC7047F8B506460F4600
:105890001446D518AC4201D1002007E014F8011BD2
:1058A0003A463046FFF7DCFF431CF3D1F8BD000059
:1058B0002DE9F04F0D469DB014469846064618B1A6
:1058C00083690BB900F06EFF894B9D421BD175684F
:1058D0006B6ED90705D4AB899A0502D4A86D00F088
:1058E000FFFFAB891B0701D52B69EBB92946304671
:1058F00000F0CCFDC0B16B6EDC070ED54FF0FF3071
:105900001DB0BDE8F08F7B4B9D4201D1B568DFE74C
:10591000794B9D4208BFF568DAE7AB899805EDD46D
:10592000A86D00F0DEFFE9E70023099320238DF83E
:105930002930CDF80C803023DFF8C0818DF82A3073
:105940004FF0010923469A4613F8012B0AB1252A84
:10595000F9D1BAEB040B0BD05B4622462946304600
:10596000FFF793FF013000F0AA80099A5A44099288
:105970009AF80030002B00F0A28000234FF0FF3295
:10598000CDE905230AF1010A049307938DF85330FA
:105990001A935446052214F8011B5848FAF7F8FBED
:1059A000049AD8B9D10644BF20238DF85330130789
:1059B00044BF2B238DF853309AF800302A2B15D092
:1059C000079A544600204FF00A0C214611F8013B7B
:1059D000303B092B4ED9B0B1079214E0A0EB08037D
:1059E00009FA03F313430493A246D2E7039B191D5C
:1059F0001B680391002BBBBF5B4242F0020207937E
:105A00000793B8BF049223782E2B0CD163782A2BEE
:105A100035D1039B1A1D1B680392002BB8BF4FF0B2
:105A2000FF3302340593DFF8D8A0217803225046D3
:105A3000FAF7AEFB40B14023A0EB0A0003FA00F0F6
:105A4000049B03430134049314F8011B2D488DF883
:105A500028100622FAF79CFB00283FD02A4B1BBBDC
:105A6000039B073323F0070308330393099B3B444D
:105A7000099367E70CFB02320C460120A5E70023DF
:105A80000134059319464FF00A0C204610F8012BFB
:105A9000303A092A03D9002BC5D00591C3E70CFB86
:105AA000012104460123F0E703AB00932A46174B7C
:105AB00004A93046AFF300800746781CD6D16B6E40
:105AC000D90705D4AB899A0502D4A86D00F009FF67
:105AD000AB895B063FF512AF099811E703AB009362
